:020000040000fa
:0800000064240400000000006c
:020000040000fa
:1000080004220000082200000c2200001022000038
:100018001422000000220000182200000022000024
:100028001c220000202200002422000028220000b8
:100038002c220000002200003022000034220000a0
:10004800382200003c220000402200004422000028
:10005800482200004c2200005022000054220000d8
:10006800582200005c220000602200006422000088
:10007800682200006c2200000022000070220000ac
:1000880074220000782200007c22000080220000f8
:1000980084220000882200008c22000090220000a8
:1000a800002200000022000000220000942200002c
:1000b800982200009c220000a022000000220000dc
:1000c800a4220000a822000000220000ac220000a8
:1000d800b0220000b4220000b8220000bc220000b8
:1000e800c0220000c4220000c8220000cc22000068
:1000f800d022000000220000d422000000220000cc
:10010800d8220000dc220000e0220000e4220000e7
:10011800e8220000ec220000f0220000f422000097
:10012800f8220000fc22000000220000002300004a
:1001380004230000082300000c2300001023000003
:1001480014230000182300001c23000020230000b3
:1001580024230000282300002c2300003023000063
:100168000022000034230000382300003c23000054
:100178004023000044230000482300004c230000d3
:100188005023000054230000582300005c23000083
:100198006023000064230000682300006c23000033
:1001a8007023000074230000782300007c230000e3
:1001b8008023000084230000882300008c23000093
:1001c8009023000094230000982300009c23000043
:1001d800a0230000a4230000a8230000ac230000f3
:1001e800b0230000b4230000b8230000bc230000a3
:1001f800c0230000c4230000c8230000cc23000053
:10020800d0230000d4230000d8230000dc23000002
:10021800e0230000e4230000e8230000ec230000b2
:10022800f02300000022000000220000002200004d
:10023800002200000022000000220000002200002e
:10024800002200000022000000220000002200001e
:100258000022000000220000f4230000f823000020
:10026800fc23000000220000002200000022000001
:1002780000220000002400000424000000220000e6
:10028800082400000c2400000022000000220000c6
:1002980000220000002200000022000000220000ce
:1002a80000220000002200000022000000220000be
:1002b80000220000002200000022000000220000ae
:1002c800002200001024000014240000182400005c
:1002d8001c240000202400002424000028240000fe
:1002e8002c240000302400003424000038240000ae
:1002f8003c240000402400004424000000220000a8
:10030800002200000022000000220000002200005d
:1003180000220000482400004c2400005024000063
:1003280054240000582400005c24000060240000cd
:10033800002200000022000000220000002200002d
:10034800002200000022000000220000002200001d
:10035800002200000022000000220000002200000d
:1003680000220000002200000022000000220000fd
:1003780000220000002200000022000000220000ed
:1003880000220000002200000022000000220000dd
:1003980000220000002200000022000000220000cd
:1003a80000220000002200000022000000220000bd
:1003b80000220000002200000022000000220000ad
:1003c800002200000022000000220000002200009d
:1003d800002200000022000000220000002200008d
:1003e800002200000022000000220000002200007d
:0803f8000022000000220000b9
:020000040000fa
:104000006424040000000000000000000200000022
:104010000000000002000000020000000400000098
:0c40200000000000000000000000000094
:020000040000fa
:10402c000000fa00007c80000080fa00000006000e
:10403c000200fa00faff0700000f78001e0078005b
:10404c00240007000004e0000200320000002800f9
:10405c007d0007001e0078002c0007000004e00023
:10406c000200320000002400770007001e007800d8
:10407c00360007000004e00002003200002020009f
:10408c00710007001e007800400007000004e000eb
:10409c0002003200000820006b0007001e007800b0
:1040ac004a0007000004e000020032000004200077
:1040bc00650007001e007800540007000004e000b3
:1040cc0002003200000120005f0007000080fa00af
:1040dc00000006000400fa008e80e80080087800da
:1040ec000040eb00004f78000e80e80010007800d4
:1040fc000000e00002003d0010c0b300004f78004b
:10410c001e4078000080fa00000006000400fa004f
:10411c008e80e800800878000040eb00004f7800ab
:10412c000e80e80090007800000024000080600001
:10413c000000e0000200320010c0b300004f780015
:10414c001e4078000080fa00000006000400fa000f
:10415c008e80e800800878000040eb00004f78006b
:10416c000e80e800900078000020200000806000a5
:10417c000000e0000200320010c0b300004f7800d5
:10418c001e4078000080fa00000006000400fa00cf
:10419c008e80e800800878000040eb00004f78002b
:1041ac000e80e8009000780000082000008060007d
:1041bc000000e0000200320010c0b300004f780095
:1041cc001e4078000080fa00000006000400fa008f
:1041dc008e80e800800878000040eb00004f7800eb
:1041ec000e80e80090007800000420000080600041
:1041fc000000e0000200320010c0b300004f780055
:10420c001e4078000080fa00000006000400fa004e
:10421c008e80e800800878000040eb00004f7800aa
:10422c000e80e80010007800700060000000e000d4
:10423c000200320010c0b300004f78001e4078001e
:10424c000080fa00000006000200fa00000f78005f
:10425c001e80ea00017c800001006000007c880068
:10426c000080fa00000006000000fa00802fef002a
:08427c000080fa0000000600ba
:020000040000fa
:104284000000fa0010002300307c88006009200040
:10429400407c88008c2fef0010042000507c8800a4
:1042a40010102000707c880060092000807c880049
:1042b40010042000907c88009a2fef00b82fef00a4
:1042c400ba2fef00be2fef00002def00a02fef005c
:1042d400a42fef00a62fef00a82fef00aa2fef00c6
:1042e400ae2fef00b02fef00b22fef0072002000ce
:1042f40080072000a109200053f82000804978009d
:1043040081497800824978000001eb0060042000b4
:104314007105200043f82000804978008149780025
:10432400824978000080fa00000006000000fa00cc
:10433400707c8000ee800a00000000000080fb001a
:1043440000f0a7000000ea000000ea004f00de00d1
:0c435400004078000080fa000000060025
:020000040000fa
:104360000200fa00000f780021028000200f2000d8
:10437000008060001e007000200288000080fa00ab
:10438000000006000000fa00c3e8a80000000000da
:10439000000000000080fa00000006000000fa00a3
:1043a000bb020700f1020700b6ff07005102070039
:1043b000f4ff070000022000e9ff07000080fa0078
:0443c00000000600f3
:020000040000fa
:1043c4002410000002000000800000000010000023
:1043d4000200000080000000041000002000000023
:1043e40080000000021000000200000082000000b3
:0843f400ffff000000000000c3
:020000040000fa
:0443fc00ffff370088
:020000040000fa
:08440000742604000000000016
:020000040000fa
:084408009825040000000000eb
:020000040000fa
:08441000da25040000000000a1
:020000040000fa
:084418001a2604000000000058
:020000040000fa
:08442000b825040000000000b3
:020000040000fa
:08442800fa2504000000000069
:020000040000fa
:084430003a2604000000000020
:020000040000fa
:08443800002204000000000056
:020000040000fa
:084440006225040000000000e9
:020000040000fa
:08444800002204000000000046
:020000040000fa
:0844500000220400000000003e
:020000040000fa
:08445800002204000000000036
:020000040000fa
:0844600000220400000000002e
:020000040000fa
:08446800002204000000000026
:020000040000fa
:0844700000220400000000001e
:020000040000fa
:08447800002204000000000016
:020000040000fa
:0844800000220400000000000e
:020000040000fa
:08448800002204000000000006
:020000040000fa
:084490000022040000000000fe
:020000040000fa
:084498000022040000000000f6
:020000040000fa
:0844a0000022040000000000ee
:020000040000fa
:0844a8000022040000000000e6
:020000040000fa
:0844b0000022040000000000de
:020000040000fa
:0844b8000022040000000000d6
:020000040000fa
:0844c0000022040000000000ce
:020000040000fa
:0844c8000022040000000000c6
:020000040000fa
:0844d0000022040000000000be
:020000040000fa
:0844d8000022040000000000b6
:020000040000fa
:0844e0000022040000000000ae
:020000040000fa
:0844e8000022040000000000a6
:020000040000fa
:0844f00000220400000000009e
:020000040000fa
:0844f800002204000000000096
:020000040000fa
:0845000000220400000000008d
:020000040000fa
:08450800002204000000000085
:020000040000fa
:0845100000220400000000007d
:020000040000fa
:08451800002204000000000075
:020000040000fa
:0845200000220400000000006d
:020000040000fa
:08452800002204000000000065
:020000040000fa
:0845300000220400000000005d
:020000040000fa
:08453800002204000000000055
:020000040000fa
:0845400000220400000000004d
:020000040000fa
:08454800002204000000000045
:020000040000fa
:0845500000220400000000003d
:020000040000fa
:08455800002204000000000035
:020000040000fa
:0845600000220400000000002d
:020000040000fa
:08456800002204000000000025
:020000040000fa
:0845700000220400000000001d
:020000040000fa
:08457800002204000000000015
:020000040000fa
:0845800000220400000000000d
:020000040000fa
:08458800002204000000000005
:020000040000fa
:084590000022040000000000fd
:020000040000fa
:084598000022040000000000f5
:020000040000fa
:0845a0000022040000000000ed
:020000040000fa
:0845a8000022040000000000e5
:020000040000fa
:0845b0000022040000000000dd
:020000040000fa
:0845b8000022040000000000d5
:020000040000fa
:0845c0000022040000000000cd
:020000040000fa
:0845c8000022040000000000c5
:020000040000fa
:0845d0000022040000000000bd
:020000040000fa
:0845d8000022040000000000b5
:020000040000fa
:0845e0000022040000000000ad
:020000040000fa
:0845e8000022040000000000a5
:020000040000fa
:0845f00000220400000000009d
:020000040000fa
:0845f800002204000000000095
:020000040000fa
:0846000000220400000000008c
:020000040000fa
:08460800002204000000000084
:020000040000fa
:0846100000220400000000007c
:020000040000fa
:08461800002204000000000074
:020000040000fa
:0846200000220400000000006c
:020000040000fa
:08462800002204000000000064
:020000040000fa
:0846300000220400000000005c
:020000040000fa
:08463800002204000000000054
:020000040000fa
:0846400000220400000000004c
:020000040000fa
:08464800002204000000000044
:020000040000fa
:0846500000220400000000003c
:020000040000fa
:08465800002204000000000034
:020000040000fa
:0846600000220400000000002c
:020000040000fa
:08466800002204000000000024
:020000040000fa
:0846700000220400000000001c
:020000040000fa
:08467800002204000000000014
:020000040000fa
:0846800000220400000000000c
:020000040000fa
:08468800002204000000000004
:020000040000fa
:084690000022040000000000fc
:020000040000fa
:084698000022040000000000f4
:020000040000fa
:0846a0000022040000000000ec
:020000040000fa
:0846a8000022040000000000e4
:020000040000fa
:0846b0000022040000000000dc
:020000040000fa
:0846b8000022040000000000d4
:020000040000fa
:0846c0000022040000000000cc
:020000040000fa
:0846c8000022040000000000c4
:020000040000fa
:0846d0000022040000000000bc
:020000040000fa
:0846d8000022040000000000b4
:020000040000fa
:0846e0000022040000000000ac
:020000040000fa
:0846e8000022040000000000a4
:020000040000fa
:0846f00000220400000000009c
:020000040000fa
:0846f800002204000000000094
:020000040000fa
:0847000000220400000000008b
:020000040000fa
:08470800002204000000000083
:020000040000fa
:0847100000220400000000007b
:020000040000fa
:08471800002204000000000073
:020000040000fa
:0847200000220400000000006b
:020000040000fa
:08472800002204000000000063
:020000040000fa
:0847300000220400000000005b
:020000040000fa
:08473800002204000000000053
:020000040000fa
:0847400000220400000000004b
:020000040000fa
:08474800002204000000000043
:020000040000fa
:0847500000220400000000003b
:020000040000fa
:08475800002204000000000033
:020000040000fa
:0847600000220400000000002b
:020000040000fa
:08476800002204000000000023
:020000040000fa
:0847700000220400000000001b
:020000040000fa
:08477800002204000000000013
:020000040000fa
:0847800000220400000000000b
:020000040000fa
:08478800002204000000000003
:020000040000fa
:084790000022040000000000fb
:020000040000fa
:084798000022040000000000f3
:020000040000fa
:0847a0000022040000000000eb
:020000040000fa
:0847a8000022040000000000e3
:020000040000fa
:0847b0000022040000000000db
:020000040000fa
:0847b8000022040000000000d3
:020000040000fa
:0847c0000022040000000000cb
:020000040000fa
:0847c8000022040000000000c3
:020000040000fa
:0847d0000022040000000000bb
:020000040000fa
:0847d8000022040000000000b3
:020000040000fa
:0847e0000022040000000000ab
:020000040000fa
:0847e8000022040000000000a3
:020000040000fa
:0847f00000220400000000009b
:020000040000fa
:0847f800002204000000000093
:020000040000fa
:0848000000220400000000008a
:020000040000fa
:08480800002204000000000082
:020000040000fa
:0848100000220400000000007a
:020000040000fa
:08481800002204000000000072
:020000040000fa
:0848200000220400000000006a
:020000040000fa
:08482800002204000000000062
:020000040000fa
:0848300000220400000000005a
:020000040000fa
:08483800002204000000000052
:020000040000fa
:0848400000220400000000004a
:020000040000fa
:08484800002204000000000042
:020000040000fa
:0848500000220400000000003a
:020000040000fa
:08485800002204000000000032
:020000040000fa
:0848600000220400000000002a
:020000040000fa
:08486800002204000000000022
:020000040000fa
:0848700000220400000000001a
:020000040000fa
:08487800002204000000000012
:020000040000fa
:0848800000220400000000000a
:020000040000fa
:08488800002204000000000002
:020000040000fa
:084890000022040000000000fa
:020000040000fa
:084898000022040000000000f2
:020000040000fa
:0848a0000022040000000000ea
:020000040000fa
:0848a8000022040000000000e2
:020000040000fa
:0848b0000022040000000000da
:020000040000fa
:0848b8000022040000000000d2
:020000040000fa
:0848c0000022040000000000ca
:020000040000fa
:1048c8006f0221000eff26000e0188000000000084
:1048d800000020000000e00002003200000120007b
:1048e8002002880014000700ff0007000000e00015
:1048f80003003a00201e22000100200002003700b9
:104908000000200001002000810f7000010032002b
:104918000f000700000020000000e0000200320045
:104928000000020000000000c6270200000000008e
:104938000040da000000fe00200020000000e00037
:1049480002003200100020009001880000000600dc
:10495800a1028800800478000000eb001f003700e7
:10496800e284440054a0b4009905ba00e2844400eb
:1049780054a0b4009906ba00e284440054a0b400dc
:104988000006eb00476fde00fd07b200ae018800ad
:10499800636ce10003003a000ad801000000eb0054
:1049a8000e003700606ce10008003a00004deb0093
:1049b8000a05e800020039003420ec000af0a000e3
:1049c8008b05e900f9ff3e00040037006168e1004b
:1049d800010032000086eb000b00070019c7ba007f
:1049e8001905ba000e04e00003003a000a00e000ce
:1049f800dbff3a0000000600fe07b200ae028800a6
:104a08008a047800f5ff37000cd0a300e20f4d00b0
:104a18001c003b0089027800354dba000a05e80001
:104a2800020039003420ec000af0a0008b05e900f0
:104a38000f003200254dba000a05e80002003900cf
:104a48003420ec000af0a0008b05e90008003200d1
:104a58000c00e0000600320015cdba000a05e80097
:104a6800020039003420ec000af0a0008b05e900b0
:104a78008984e80054a0b4000b00e000e2ff3a008b
:104a8800000006009902ba00055d78008b05e90070
:104a9800f7ff3200c82ade00055d78008b05e900c3
:104aa800f3ff32000c00e000f1ff320019ddba001c
:104ab800eeff3700d2260400000000003600f800a0
:104ac800809fbe00829fbe00849fbe00869fbe005e
:104ad8000000fa00008080000000e00002003200c0
:104ae8000080800000000100500221001040780082
:104af8008040e8005002210001487800400221006f
:104b080011c0b300014878000028a9000080fa000d
:104b18004f03be004f02be004f01be004f00be0053
:104b28003600f900004006003600f800809fbe00fd
:104b3800829fbe00849fbe00869fbe000000fa00d0
:104b4800c028a9000000eb00fa0007000080fa0066
:104b58004f03be004f02be004f01be004f00be0013
:104b68003600f900004006003600f800809fbe00bd
:104b7800829fbe00849fbe00869fbe000000fa0090
:104b8800f1000700c048a90010002000e900070054
:104b98000080fa004f03be004f02be004f01be0066
:104ba8004f00be003600f900004006003600f8004d
:104bb800809fbe00829fbe00849fbe00869fbe006d
:104bc8000000fa00c068a90020002000d9000700f2
:104bd8000080fa004f03be004f02be004f01be0026
:104be8004f00be003600f900004006003600f8000d
:104bf800809fbe00829fbe00849fbe00869fbe002d
:104c08000000fa00c088a90030002000c900070091
:104c18000080fa004f03be004f02be004f01be00e5
:104c28004f00be003600f900004006003600f800cc
:104c3800809fbe00829fbe00849fbe00869fbe00ec
:104c48000000fa00c608a90070002000b90007009b
:104c58000080fa004f03be004f02be004f01be00a5
:104c68004f00be003600f900004006003600f8008c
:104c7800809fbe00829fbe00849fbe00869fbe00ac
:104c88000000fa002146800000102000008060002b
:104c98000000e00003003200c508a900c0002000a1
:104ca800a400070020468000700060000000e000bb
:104cb80003003200c488a900a00020009d0007005e
:104cc80020468000610060000000e0000300320020
:104cd800c408a900b000200096000700ffff3700b5
:0c4ce8000040da000000fe0000000500a3
:020000040000fa
:104cf4000000fa000421ef0080d02300400888005f
:104d04000003280000088800008080000000e00004
:104d140002003a00206d22002f0007000028a9009d
:104d24002028a800400221008040eb0001487800c0
:104d34000080fa00000006000200fa00000f78006c
:104d44009e00780041088800400221008040eb006a
:104d5400014878000080fa00000006000000fa0014
:104d6400400880000080fa00000006000200fa00fb
:104d7400000f78009e00780021088800400221007e
:104d84008040eb00014878000080fa000000060033
:104d94000000fa00200880000080fa0000000600ed
:104da4000000fa00b0738000ff800a0000000000d9
:104db4000004a200614060000080fb004f00dd00a1
:104dc400b173800001f0a10001007000b07388008d
:104dd4000080fa00000006000200fa00000f7800cc
:104de4002028a9009e007800018088002028a800bf
:104df4000080fa00000006000000fa0040022100d2
:104e04008040eb00014878002028a80001e1a800b8
:104e14000080fa00000006000000fa0001e1a90089
:104e24002028a9000080fa00000006000200fa0011
:104e340040022100104f78001e4078000004e0007a
:104e440003003200400221008040eb00014878005a
:104e54001e4078000080fa00000006000000fa00fe
:104e640050022100104078000080fb000080fa000e
:104e7400000006000000fa00500221008040eb0010
:0c4e8400014878000080fa0000000600e1
:020000040000fa
:104e90000000fa00062eef00222eef003e2eef005b
:104ea0005a2eef00762eef00f001200010708800df
:104eb000d0ff2f00f07088000080eb00d0718800d8
:104ec0000080eb00b0728800f0ff21009073880032
:104ed0000c2eef00282eef00442eef00602eef0086
:104ee0007c2eef000a2eef00262eef00422eef0060
:104ef0005e2eef007a2eef00082eef00242eef003a
:104f0000402eef005c2eef00782eef00f001200025
:104f100000708800d0392000e0708800f00c20007c
:104f2000c071880000c02200a0728800f00020003c
:0c4f3000807388000080fa00000006007a
:020000040000fa
:104f3c000200fa00000f78009e00780011808800b3
:104f4c00ffff37000000fa004000210080077800c6
:104f5c00c0012100000188000080fa00000006005a
:104f6c000000fa0001428000f0f82f000080600081
:104f7c000040a000004288000080fa0000000600fb
:0c4f8c000000fa0002fd0700ffff3700e4
:020000040000fa
:020000040005f5
:047e0000ffffff0081
:020000040000fa
:020000040005f5
:047e2000ffffff0061
:020000040000fa
:020000040005f5
:047e30007fffff00d1
:020000040000fa
:020000040005f5
:047e3800bfffff0089
:020000040000fa
:020000040005f5
:047e40007f7fff0041
:020000040000fa
:020000040005f5
:047e4800ffffff0039
:020000040000fa
:020000040005f5
:047e5000ddffff0053
:020000040000fa
:020000040005f5
:047e58000000ff0027
:020000040000fa
:020000040005f5
:047e60000000ff001f
:020000040000fa
:020000040005f5
:047e68000000ff0017
:020000040000fa
:020000040005f5
:047e70000000ff000f
:020000040000fa
:020000040005f5
:047e7800ffffff0009
:020000040000fa
:020000040005f5
:047e8000fffcff0004
:020000040000fa
:020000040005f5
:047e8800ffffff00f9
:020000040000fa
:020000040005f5
:047ff800ffffff0088
:020000040000fa
:020000040100f9
:04300000ffffff00cf
:00000001FF
