:020000040000fa
:08000000581604000000000086
:020000040000fa
:040008004a1000009a
:020000040000fa
:04000c008c10000054
:020000040000fa
:04001000cc10000010
:020000040000fa
:040014006a1000006e
:020000040000fa
:04001800ac10000028
:020000040000fa
:04001c00a217000027
:020000040000fa
:04002000ec100000e0
:020000040000fa
:04002400a21700001f
:020000040000fa
:04002800a21700001b
:020000040000fa
:04002c001c1700009d
:020000040000fa
:04003000a217000013
:020000040000fa
:04003400a21700000f
:020000040000fa
:04003800a21700000b
:020000040000fa
:04003c00a217000007
:020000040000fa
:04004000a217000003
:020000040000fa
:04004400a2170000ff
:020000040000fa
:04004800a2170000fb
:020000040000fa
:04004c00a2170000f7
:020000040000fa
:04005000a2170000f3
:020000040000fa
:04005400a2170000ef
:020000040000fa
:04005800a2170000eb
:020000040000fa
:04005c00a2170000e7
:020000040000fa
:04006000a2170000e3
:020000040000fa
:04006400a2170000df
:020000040000fa
:04006800a2170000db
:020000040000fa
:04006c00a2170000d7
:020000040000fa
:04007000a2170000d3
:020000040000fa
:04007400a2170000cf
:020000040000fa
:04007800a2170000cb
:020000040000fa
:04007c00a2170000c7
:020000040000fa
:04008000a2170000c3
:020000040000fa
:04008400a2170000bf
:020000040000fa
:04008800a2170000bb
:020000040000fa
:04008c00a2170000b7
:020000040000fa
:04009000a2170000b3
:020000040000fa
:04009400a2170000af
:020000040000fa
:04009800a2170000ab
:020000040000fa
:04009c00a2170000a7
:020000040000fa
:0400a000a2170000a3
:020000040000fa
:0400a400a21700009f
:020000040000fa
:0400a800a21700009b
:020000040000fa
:0400ac00a217000097
:020000040000fa
:0400b000a217000093
:020000040000fa
:0400b400a21700008f
:020000040000fa
:0400b800a21700008b
:020000040000fa
:0400bc00a217000087
:020000040000fa
:0400c000a217000083
:020000040000fa
:0400c400a21700007f
:020000040000fa
:0400c800a21700007b
:020000040000fa
:0400cc00a217000077
:020000040000fa
:0400d000a217000073
:020000040000fa
:0400d400a21700006f
:020000040000fa
:0400d800a21700006b
:020000040000fa
:0400dc00a217000067
:020000040000fa
:0400e000a217000063
:020000040000fa
:0400e400a21700005f
:020000040000fa
:0400e800a21700005b
:020000040000fa
:0400ec00a217000057
:020000040000fa
:0400f000a217000053
:020000040000fa
:0400f400a21700004f
:020000040000fa
:0400f800a21700004b
:020000040000fa
:0400fc00a217000047
:020000040000fa
:04010000a217000042
:020000040000fa
:04010400a21700003e
:020000040000fa
:04010800a21700003a
:020000040000fa
:04010c00a217000036
:020000040000fa
:04011000a217000032
:020000040000fa
:04011400a21700002e
:020000040000fa
:04011800a21700002a
:020000040000fa
:04011c00a217000026
:020000040000fa
:04012000a217000022
:020000040000fa
:04012400a21700001e
:020000040000fa
:04012800a21700001a
:020000040000fa
:04012c00a217000016
:020000040000fa
:04013000a217000012
:020000040000fa
:04013400a21700000e
:020000040000fa
:04013800a21700000a
:020000040000fa
:04013c00a217000006
:020000040000fa
:04014000a217000002
:020000040000fa
:04014400a2170000fe
:020000040000fa
:04014800a2170000fa
:020000040000fa
:04014c00a2170000f6
:020000040000fa
:04015000a2170000f2
:020000040000fa
:04015400a2170000ee
:020000040000fa
:04015800a2170000ea
:020000040000fa
:04015c00a2170000e6
:020000040000fa
:04016000a2170000e2
:020000040000fa
:04016400a2170000de
:020000040000fa
:04016800a2170000da
:020000040000fa
:04016c00a2170000d6
:020000040000fa
:04017000a2170000d2
:020000040000fa
:04017400a2170000ce
:020000040000fa
:04017800a2170000ca
:020000040000fa
:04017c00a2170000c6
:020000040000fa
:04018000a2170000c2
:020000040000fa
:04018400a2170000be
:020000040000fa
:04018800a2170000ba
:020000040000fa
:04018c00a2170000b6
:020000040000fa
:04019000a2170000b2
:020000040000fa
:04019400a2170000ae
:020000040000fa
:04019800a2170000aa
:020000040000fa
:04019c00a2170000a6
:020000040000fa
:0401a000a2170000a2
:020000040000fa
:0401a400a21700009e
:020000040000fa
:0401a800a21700009a
:020000040000fa
:0401ac00a217000096
:020000040000fa
:0401b000a217000092
:020000040000fa
:0401b400a21700008e
:020000040000fa
:0401b800a21700008a
:020000040000fa
:0401bc00a217000086
:020000040000fa
:0401c000a217000082
:020000040000fa
:0401c400a21700007e
:020000040000fa
:0401c800a21700007a
:020000040000fa
:0401cc00a217000076
:020000040000fa
:0401d000a217000072
:020000040000fa
:0401d400a21700006e
:020000040000fa
:0401d800a21700006a
:020000040000fa
:0401dc00a217000066
:020000040000fa
:0401e000a217000062
:020000040000fa
:0401e400a21700005e
:020000040000fa
:0401e800a21700005a
:020000040000fa
:0401ec00a217000056
:020000040000fa
:0401f000a217000052
:020000040000fa
:0401f400a21700004e
:020000040000fa
:0401f800a21700004a
:020000040000fa
:0401fc00a217000046
:020000040000fa
:04020000a217000041
:020000040000fa
:04020400a21700003d
:020000040000fa
:04020800a217000039
:020000040000fa
:04020c00a217000035
:020000040000fa
:04021000a217000031
:020000040000fa
:04021400a21700002d
:020000040000fa
:04021800a217000029
:020000040000fa
:04021c00a217000025
:020000040000fa
:04022000a217000021
:020000040000fa
:04022400a21700001d
:020000040000fa
:04022800a217000019
:020000040000fa
:04022c00a217000015
:020000040000fa
:04023000a217000011
:020000040000fa
:04023400a21700000d
:020000040000fa
:04023800a217000009
:020000040000fa
:04023c00a217000005
:020000040000fa
:04024000a217000001
:020000040000fa
:04024400a2170000fd
:020000040000fa
:04024800a2170000f9
:020000040000fa
:04024c00a2170000f5
:020000040000fa
:04025000a2170000f1
:020000040000fa
:04025400a2170000ed
:020000040000fa
:04025800a2170000e9
:020000040000fa
:04025c00a2170000e5
:020000040000fa
:04026000a2170000e1
:020000040000fa
:04026400a2170000dd
:020000040000fa
:04026800a2170000d9
:020000040000fa
:04026c00a2170000d5
:020000040000fa
:04027000a2170000d1
:020000040000fa
:04027400a2170000cd
:020000040000fa
:04027800a2170000c9
:020000040000fa
:04027c00a2170000c5
:020000040000fa
:04028000a2170000c1
:020000040000fa
:04028400a2170000bd
:020000040000fa
:04028800a2170000b9
:020000040000fa
:04028c00a2170000b5
:020000040000fa
:04029000a2170000b1
:020000040000fa
:04029400a2170000ad
:020000040000fa
:04029800a2170000a9
:020000040000fa
:04029c00a2170000a5
:020000040000fa
:0402a000a2170000a1
:020000040000fa
:0402a400a21700009d
:020000040000fa
:0402a800a217000099
:020000040000fa
:0402ac00a217000095
:020000040000fa
:0402b000a217000091
:020000040000fa
:0402b400a21700008d
:020000040000fa
:0402b800a217000089
:020000040000fa
:0402bc00a217000085
:020000040000fa
:0402c000a217000081
:020000040000fa
:0402c400a21700007d
:020000040000fa
:0402c800a217000079
:020000040000fa
:0402cc00a217000075
:020000040000fa
:0402d000a217000071
:020000040000fa
:0402d400a21700006d
:020000040000fa
:0402d800a217000069
:020000040000fa
:0402dc00a217000065
:020000040000fa
:0402e000a217000061
:020000040000fa
:0402e400a21700005d
:020000040000fa
:0402e800a217000059
:020000040000fa
:0402ec00a217000055
:020000040000fa
:0402f000a217000051
:020000040000fa
:0402f400a21700004d
:020000040000fa
:0402f800a217000049
:020000040000fa
:0402fc00a217000045
:020000040000fa
:04030000a217000040
:020000040000fa
:04030400a21700003c
:020000040000fa
:04030800a217000038
:020000040000fa
:04030c00a217000034
:020000040000fa
:04031000a217000030
:020000040000fa
:04031400a21700002c
:020000040000fa
:04031800a217000028
:020000040000fa
:04031c00a217000024
:020000040000fa
:04032000a217000020
:020000040000fa
:04032400a21700001c
:020000040000fa
:04032800a217000018
:020000040000fa
:04032c00a217000014
:020000040000fa
:04033000a217000010
:020000040000fa
:04033400a21700000c
:020000040000fa
:100400000b080000000000000000000000000000d9
:1004100000000000000100000020000000000000bb
:10042000feb700000200000009000000000000000c
:1004300000000000000000000000000000010000bb
:08044000002000000000000094
:020000040000fa
:100448000000fa000080fa00000006000600fa002a
:10045800881f7800c3070700000f78001e00780087
:100468000000e00002003a001000200046003700bb
:100478001e007800ea0f500002003e002000200015
:10048800410037000000eb006e0707008e80e8008f
:1004980080487800100020006a0707000084fb00ed
:1004a80020002000670707000080fb004800dd00ef
:1004b80000004400eb004000640047000108780099
:1004c800640047009000780000102000808f5000e2
:1004d800070036000e80e80010407800e34f500017
:1004e80003003200d00f200031000700260037003b
:1004f8000e80e800104078000080fb00e30f5000f9
:1005080016003200e30f500007003c00e10f5000d6
:100518000e003200e10f50000a003c000000e0002d
:100528000c00320016003700ea0f500010003200ad
:10053800eb0f500010003200e90f500009003200a4
:100548000f003700460107000f003700fe010700c3
:100558000d0037002b0007000b003700a400070030
:10056800090037008a0007000000eb00060037008a
:100578006d020700040037009102070002003700ef
:10058800f00f20000a0007004f0478000080fa00ee
:10059800000006000200fa0000802200000f780028
:1005a8001e007800000001000080fa00000006002c
:1005b8000e00fa00ec00470080087800b100200027
:1005c800c01021002b070700b2002000c110210035
:1005d8000e007800450a07006c00470010007800fc
:1005e800804078006b00470001487800c100200077
:1005f8000e0078003f070700300020000080fa0056
:10060800000006002600fa0011000900001feb0098
:10061800005feb005e02b1006a00470090007800be
:10062800f00f200000806000800078000190a0009a
:100638006a004700010878006c00470090007800c5
:1006480000f02f0000806000800078000100a0000a
:100658006c004700010878006c00470090007800a3
:10066800f00f2000808060006c00470001087800cf
:100678006e0047009000780000f02f0000806000b6
:10068800800078000100a0006e0047000108780093
:100698007000470090007800f00f20008080600014
:1006a8000060250081007000700047000108780094
:1006b800720047009000780000f02f0080806000f2
:1006c8004003200081007000720047000108780094
:1006d8007600470090007800f00f2000008060004e
:1006e8008000780001b0a00076004700010878007b
:1006f800780047009000780000f02f0080806000ac
:100708007800470001087800b5030700f10f2000c2
:1007180081006000c808dd0074014700920178007c
:10072800f20f20000281610002817000f40047008e
:1007380082087800c800de00f00f2000008060000a
:10074800f60047001101780001f02f0081006100d8
:10075800810070007600470001087800b100200091
:10076800c0102100c3060700510220000e007800c7
:10077800e00607000000eb000080fa000000060019
:100788000000fa000000fe000080fa0000000600e9
:100798000c00fa00402128008e007800b01878007c
:1007a800a0107800e480400064004000b018780091
:1007b800a0107800e480400064004000b018780081
:1007c800a0107800e480400064004000b1002000e0
:1007d800c0102100a7060700c10020000e00780005
:1007e800c4060700e6ff07000080fa0000000600c4
:1007f8001200fa00881f7800c0102100000f78004e
:10080800b1002000c01021009a06070066004700ca
:10081800b2002000c1102100b40907001e017800b1
:10082800e7014100934178008381fb0068024100a1
:10083800144278000482fb004822dd0084817100a4
:1008480003007800e9014100934178008381fb00af
:100858006a014100124178000281fb004811dd0065
:1008680002817100820078000e81e8000089be00d4
:10087800e1cfb30071004700014878001e007800fe
:10088800e3004000914078008180fb006402400052
:10089800144278000482fb004822dd008480700046
:1008a80001017800e5004000914078008180fb005c
:1008b80066004000104078000080fb004800dd0022
:1008c80000807000800178001e0078008000e80039
:1008d800914078008180fb000080e800104078009b
:1008e8000080fb004800dd00008070006103b80054
:1008f8001e027800e7024200954278008582fb00dc
:1009080068044200184478000884fb004844dd006d
:100918008882720005007800e9024200954278005a
:100928008582fb006a024200144278000482fb00c0
:100938004822dd0004827200840078000202be00b2
:100948000601be00900207000000e00003003a0024
:1009580011c0b300710047000148780066004700e5
:10096800c1002000630607001e017800e301410072
:10097800934178008381fb006402410014427800af
:100988000482fb004822dd008481710003007800a6
:10099800e5014100934178008381fb006601410035
:1009a800124178000281fb004811dd0002817100cc
:1009b800820078000081ea008181ea001e00780048
:1009c800f10f2000810061006302400014427800aa
:1009d8006042620001427200e300400084487800ef
:1009e800c810de00640240001442780060426200d1
:1009f80001427200e400400084487800f10f2000b2
:100a08008180610065024000144278006042620003
:100a180001427200e500400084487800c818de00f2
:100a28006601400012417800604161008140710018
:100a380066004000014878007100470010407800c7
:100a4800e14f500002003a000000eb0001003700bf
:100a5800300020004f0478000080fa0000000600f3
:100a68001400fa00889fbe00c0102100000f780013
:100a780020002000f30507000080fb00c800dd000f
:100a88000e80e8000108780010002000ed0507003e
:100a98000080fb008e80e8009100780081007000e3
:100aa8000e80e800010878002e0607008e80e80016
:100ab80091007800eb804000810f50000200310067
:100ac800200020009d0037000e80e800100078000c
:100ad8006b00400080007800c0102100e505070089
:100ae80068004700b2002000c1102100ff0807007d
:100af80011c0b30073004700014878001e01780058
:100b0800e7014100934178008381fb0068024100be
:100b1800144278000482fb004822dd0084817100c1
:100b280003007800e9014100934178008381fb00cc
:100b38006a014100124178000281fb004811dd0082
:100b48000281710082007800640147000089be00bc
:100b58000e80e80090007800500f2000808f500031
:100b680035003e001e007800e30040009140780008
:100b78008180fb0064024000144278000482fb007c
:100b88004822dd008480700001017800e500400003
:100b9800914078008180fb0066004000104078009a
:100ba8000080fb004800dd000080700080017800b4
:100bb8009e007800eb8240000e80e800100078006c
:100bc8006104b8001e0278006703420016437800eb
:100bd8000683fb00e8034200974378008783fb0005
:100be800c83bdd0007037300060078006903420074
:100bf800164378000683fb006a024200144278001c
:100c08000482fb004822dd0004027300840078009f
:100c18000203be00050278000801be001f0107009c
:100c28000000e00007003200e1cfb3007300470086
:100c38000148780003003700e1cfb3007300470094
:100c48000148780068004700c1002000a905070096
:100c58001e017800e3014100934178008381fb0085
:100c680064024100144278000482fb004822dd003f
:100c78008481710003007800e50141009341780008
:100c88008381fb0066014100124178000281fb006c
:100c98004811dd0002817100820078000081ea00bd
:100ca8008181ea001e007800f10f200081006100b8
:100cb8006302400014427800604262000142720000
:100cc800e300400084487800c810de006402400059
:100cd800144278006042620001427200e400400061
:100ce80084487800f10f200081806100650240008f
:100cf800144278006042620001427200e500400040
:100d080084487800c818de00660140001241780067
:100d18006041610081407100660040000148780030
:100d28007300470010407800e14f500002003a007d
:100d38000000eb0001003700300020004f04be0027
:100d48000080fa00000006000401fa00c01021002b
:100d5800000f7800b1002000c010210045050700f1
:100d680064004700b2002000c11021005f0807009e
:100d78001e0078008000e800914078008180fb0028
:100d88000080e800104078000080fb004800dd008b
:100d98000080700080007800400f2000808f500095
:100da8003d003e001e017800e701410093417800b4
:100db8008381fb0068024100144278000482fb0032
:100dc8004822dd008481710003007800e9014100b8
:100dd800934178008381fb006a0141001241780049
:100de8000281fb004811dd00028171008200780059
:100df8001e0178008201e800934178008381fb009e
:100e08000281e800124178000281fb004811dd00f0
:100e1800028171008001eb00640247006c0342000c
:100e28000002be0006007800040107008000780078
:100e38000e80e800010878000e80e80010007800b5
:100e48000000e00004003a0011c0b3006f00470042
:100e5800014878001f003700e1cfb3006f0047005a
:100e6800014878006400470090007800f00f2000e7
:100e78008080600064004700010878006600470031
:100e88009000780000f02f00808060006600470026
:100e9800010878000f003700e1cfb3006f0047006a
:100ea800014878006400470090007800f00f2000a7
:100eb80080806000640047000108780066004700f1
:100ec8009000780000f02f008080600066004700e6
:100ed8000108780064004700100078004800de0030
:100ee800e600470011017800f10f20008100610041
:100ef800c808dd0001007000ec00400064004700f5
:100f0800fc0407006f00470010407800e14f5000d4
:100f180002003a000000eb0001003700300020001a
:100f28000080fa00000006000e00fa00b100200060
:100f38000e007800cf0407000000eb00340707001c
:100f48000004a2000004e00004003200c1cfb30096
:100f58006b004700014878000300370011c0b30058
:100f68006b004700014878009e007800f00f2000d1
:100f780000806000000f78000e80e8009000780084
:100f880000f02f00808060000e80e80001087800e3
:100f9800c10020000e007800d60407006b0047004f
:100fa80010407800e14f500002003a000000eb00ca
:100fb80001003700300020000080fa000000060021
:100fc8001400fa000120280009000900311f7800e8
:100fd8004e01b100b1002000c0102100a504070097
:100fe800410120000e007800c20407000000eb0059
:100ff8000080fa00000006000400fa00008fbe001e
:10100800f0ff2100010020001e01be00800f5100ea
:10101800818f590008003600e07f2b002100200056
:101028001e01be00800f5100818f590002003e0052
:1010380010002000010037000000eb00004078009d
:101048000080fa00000006000800fa00008fbe00c9
:10105800640047000288be001e00be00e6ff0700cd
:101068000004e00009003200640047001000be00e0
:1010780062005000e0805800dfff07000004e00035
:101088000200320010002000010037000000eb00d1
:10109800004078000080fa00000006002000fa00f6
:1010a800889fbe00f2024700808abe007600470093
:1010b8000288be007a004700040878007c004700d8
:1010c8000688be006000b800008fbe008000eb00fc
:1010d8006400470001087800760047001000be0051
:1010e80000007800670060008004eb0000047800ce
:1010f8000800be00e00f5000e08f580047003a009b
:10110800760047001000be008101d1000081d300a5
:10111800720047001000be000200400083804800b3
:101128000001be00720047001000be00c6ff0700a5
:101138000004e000350032007c0047001000be00cb
:10114800240207006000b800008fbe0027003700a7
:101158001e00be008101d1000081d300720047004b
:101168001000be0002004000838048000001be005d
:101178000000eb0004010700660147000089be007b
:101188009e0078007a004700100078008100400037
:101198006a00470082002000540707006e004700dd
:1011a8001001be006a0047001000be000202be0027
:1011b8000001be00660047001000be0042020700a2
:1011c8000004a2000004e000040032003100200006
:1011d80064004700010878000a00370082002000f8
:1011e800030020001e0f41005e974900760047006b
:1011f8001000be001e01be00800f5100818f5900f3
:10120800d3ff3900f801070007003700210020004c
:10121800640047000108780003003700110020002f
:101228006400470001087800640047001000780057
:101238004f04be000080fa00000006001800fa0003
:10124800ee00470080087800700047000288be0062
:10125800740047000488be008000eb00640047006b
:1012680001087800700047001000be0000007800f8
:10127800630060008003eb00000378000600be00f6
:10128800e00f5000e08f580038003a007000470027
:101298001000be008101d1000081d3007400470016
:1012a8001000be0002004000838048000001be001c
:1012b800740047001000be0063ff07000004e00050
:1012c800260032006000b800008fbe001c00370006
:1012d8001e00be008101d1000081d30074004700c8
:1012e8001000be0002004000838048000001be00dc
:1012f8000000eb00a4000700660147000089be005b
:10130800660047001000be00d40107006a014700cc
:101318000089be009e0078006e004700100078002b
:1013280001004000ea00470042002000ef060700e5
:1013380042002000030020001e0f41005e97490074
:10134800700047001000be001e01be00800f510053
:10135800818f5900deff3900070037002100200087
:1013680064004700010878000300370011002000de
:101378006400470001087800640047001000780006
:101388000080fa00000006001800fa00881f7800a4
:101398006c044700008cbe00700047000288be0045
:1013a800740047000488be000000eb00000f7800be
:1013b8000e80e800ec004700311878002110780012
:1013c80011c0b30066004700014878000e80e800ad
:1013d8001001be0000802f00f1ff2f0002027800ec
:1013e8000301780080017800810078000300620022
:1013f8008100610081037800000378000601be00c7
:101408000e80e8001000be00800f5100818f590047
:10141800030032008040eb00660047000148780076
:10142800740047001000be006a010700280037005a
:101438000e80e8001001be0000802000010020009e
:1014480002004000838048000001be000e80e800d2
:101458001000be00fcfe07000004e0001900320086
:101468000e80e8001001be000000eb0046000700f7
:10147800680147000089be00680047001000be00f0
:10148800830107000080fb0000f0a7000000ea00cd
:101498000000ea00cf00de0066004700014878003f
:1014a8000e80e8001001be0000802000010020002e
:1014b80002004000838048000e81e8000089be00d9
:1014c800030037008040eb006600470001487800c1
:1014d80066004700104078000004e0000f0032006a
:1014e800700047001000be004b09dd00c501de009a
:1014f800830171004b01dd006c0047001000be0045
:1015080002014000838148000e80e8001000be0000
:10151800800f5100818f5900c5ff3e00320107003e
:1015280066004700104078000004a2000004e000b4
:101538000f003a00700047001000be004b09dd00a4
:10154800c501de00830171004b01dd006c0047001e
:101558001000be0002014000838148000e80e800b0
:101568001000be00800f5100818f59000200320028
:1015780020002000000f78001e0078004f0478003b
:101588000080fa00000006000a00fa00e4004700a4
:1015980080087800660047000288be0000118400b9
:1015a80011118400660147001201be00001f51009e
:1015b800019759006400470010007800c200dd0060
:1015c80000222800008040001000be003e014000bc
:1015d800ae8148000200be000080fa00000006004c
:1015e8000000fa00008020000080fa0000000600d9
:1015f8000600fa00889fbe00000f78000e80e80001
:101608000288be000e80e8001000be001a01070024
:101618008000eb001e0178000089be001e007800e3
:101628001004be000e80e8001000be0062004000fa
:10163800e0804800100107008000eb00c000dd00da
:101648000000200008004000898048001e01780042
:101658000089be000000eb004f04be000080fa00c5
:10166800000006000600fa00000f78000e80e8006f
:101678000288be000e80e8001000be00fe000700d1
:101688009e007800800878000000eb000080fa00d7
:10169800000006000600fa00000f78000e80e8003f
:1016a8000288be001e0078008e80e8001101be008e
:1016b800ecff07000e80e8001000be00620040004a
:1016c800e08048001e82e8000001be0004007800a7
:1016d800c7ff07000e80e8001000be00660040004b
:1016e800e08048001e017800660141000089be00c4
:1016f8000080fa00000006000400fa00008fbe0017
:101708001e00be0000007800610060008001eb0050
:10171800000178000200be000080700000f0a70001
:101728000000ea000000e9004f00de0000407800f9
:101738000080fa00000006000e00fa00e8014700e9
:10174800800978006a004700010878006c004700ab
:101758000208780068004700100078000080e80060
:101768001000be00000f7800680047009000780065
:101778000e80e800e68040003118780021107800db
:101788001e0078008000eb00dbff0700e600470042
:101798008048780066004700104078000004e000a8
:1017a8001c0032006c004700100078009e00780092
:1017b800808f5000140036006c004700100f78002e
:1017c800110037000e80e8001001be006a004700d3
:1017d80010007800a3ff07006a0047001000780097
:1017e8008080e8006a004700010878000e80e80061
:1017f8001000be0062004000e08048000e81e80052
:101808000089be001e8fe9001e0078000000e0007d
:10181800ecff3a0066004700104078000080fa00ac
:10182800000006001c00fa0074024700000a780055
:101838007600470001087800780047000208780021
:101848007a004700030878004200220003002000c5
:1018580074004700100078004bff0700008fbe009f
:101868008040eb00640047000148780068004700aa
:101878001e01be0087ff07006800470010007800bf
:101888000000e0003c003a006a0047001001be007a
:101898002000200001002000800f5100818f590096
:1018a80035003a00f2004700680047002200200097
:1018b800a1ff07000004e0002f0032001100200003
:1018c8006600470001087800230037006a004700d7
:1018d8001000be003e014000ae8148000200be007c
:1018e8006200200003002000021f40000397480008
:1018f800680047001e01be0066ff07006800470039
:10190800900078007600470010007800808f500023
:1019180008003a0068004700fa0047001101780003
:10192800f80047009100780083ff0700e4004700b3
:101938008048780064004700104078000004e00008
:101948000c003a0066004700100078008000e800ac
:101958006600470001087800720047009000780090
:101968006600470010007800810f5000d7ff39004b
:1019780001003700000000006400470010407800b4
:101988000080fa00000006000400fa00000f78004a
:101998000e80e80001087800420020008000eb007b
:1019a8000e80e80010007800f70207000e80e800bb
:1019b800100078004300200000017800210020007a
:1019c8001e00780097ff07000080fa00000006005c
:020000040000fa
:1019d8000000fe00c22221000019780001097800e9
:1019e800000006000000fe000000eb008000eb0095
:1019f800f8ff0700d628ef00000006000000fe00f0
:101a08000000fe00801f7800811f7800821f780088
:101a1800c122210012468000c3e8a90031007800e5
:101a2800b046880011007800b0468800d1e8a800c8
:101a38000000000000000000d1e8af00feff370002
:101a480002f0a700c3e8a8004f017800cf00780093
:101a58004f007800000006000000fe00a20280008f
:101a6800a10288009080ba001000ba00a202880083
:101a7800000006000000fe00a2028000a10288000b
:101a88001000ba00a2028800000006000000fe0054
:101a9800f27f20000001610008003a0032002400b3
:101aa8008246880090468800a1468800060d0200fc
:101ab8000000000010002000d1a8af0000002000a6
:101ac800000006000000fe00d1e8af00feff37006e
:101ad8000000a700130037000010a700110037000e
:101ae800a14688009046880010002400804688009f
:101af800a0028000a10f2000a102880001002000a0
:101b08008208bb008398bb008408bb008598bb0093
:101b1800060d020000000000a0028800100020004e
:101b2800d1a8af0000002000000006000000fe0061
:101b3800d1e8af00feff37000000a700140037000f
:101b48000010a70012003700a146880090468800c0
:101b5800a10280001000240080468800a00f200009
:101b6800a0028800000020000208bb00f20f20003d
:101b78000298bb000308bb000298bb00060d0200d8
:101b880000000000a102880010002000d1a8af00ca
:101b980000002000000006000000fe00d1e8af00b1
:101ba800feff3700f30f20008081610009003a0032
:101bb80090468800a14688002000240080468800be
:101bc800c2468800060d0200000000001000200038
:101bd800d1a8af0000002000000006000000fe00b1
:101be800d1e8af00feff3700f30f200080816100cd
:101bf80015003a0090468800a1468800100024008d
:101c080080468800a00f2000a00288000000200065
:101c180001082000f40f20003208bb000498bb0024
:101c28003208bb000490bb00060d02000000000053
:101c3800d2a8ec00d2a8ec002100b100f6ff3a00cf
:101c480010002000d1a8af0000002000000006000e
:101c5800f27f2000000061000000060002802f00d3
:101c680000006100f2ff2f00810061000000060003
:020000040000fa
:101c78000000fa00007c80000080fa0000000600e6
:101c88000200fa00faff0700000f78001e00780033
:101c9800240007000004e0000200320000002800d1
:101ca8007d0007001e0078002c0007000004e000fb
:101cb8000200320000002400770007001e007800b0
:101cc800360007000004e000020032000020200077
:101cd800710007001e007800400007000004e000c3
:101ce80002003200000820006b0007001e00780088
:101cf8004a0007000004e00002003200000420004f
:101d0800650007001e007800540007000004e0008a
:101d180002003200000120005f0007000080fa0086
:101d2800000006000400fa008e80e80080087800b1
:101d38000040eb00004f78000e80e80010007800ab
:101d48000000e00002003d0010c0b300004f780022
:101d58001e4078000080fa00000006000400fa0027
:101d68008e80e800800878000040eb00004f780083
:101d78000e80e800900078000000240000806000d9
:101d88000000e0000200320010c0b300004f7800ed
:101d98001e4078000080fa00000006000400fa00e7
:101da8008e80e800800878000040eb00004f780043
:101db8000e80e8009000780000202000008060007d
:101dc8000000e0000200320010c0b300004f7800ad
:101dd8001e4078000080fa00000006000400fa00a7
:101de8008e80e800800878000040eb00004f780003
:101df8000e80e80090007800000820000080600055
:101e08000000e0000200320010c0b300004f78006c
:101e18001e4078000080fa00000006000400fa0066
:101e28008e80e800800878000040eb00004f7800c2
:101e38000e80e80090007800000420000080600018
:101e48000000e0000200320010c0b300004f78002c
:101e58001e4078000080fa00000006000400fa0026
:101e68008e80e800800878000040eb00004f780082
:101e78000e80e80010007800700060000000e000ac
:101e88000200320010c0b300004f78001e407800f6
:101e98000080fa00000006000200fa00000f780037
:101ea8001e80ea00017c800001006000007c880040
:101eb8000080fa00000006000000fa00802fef0002
:101ec8000080fa00000006000000fa000008200068
:101ed800c01188003a22ef003c22ef0020022000c7
:101ee800f011880070062000001288004222ef00de
:101ef8004c22ef004e22ef005022ef005222ef005a
:101f08005422ef005622ef005822ef005a22ef0029
:101f18005c22ef0039e2a80038a2a8003882a800a5
:101f28000080fa00000006000000fa00000000002f
:101f3800f0118000620060000000e000fcff3a0041
:101f4800e0118000620060000000e0000100320043
:101f58003c22a90020128000004078000080fa008e
:101f6800000006000200fa00004f780000000000a0
:101f7800f0118000700060000000e000fcff3a00f3
:101f88001e80fb00401288000080fa000000060056
:101f98000000fa00f01180006200600000f0a70065
:101fa8000000ea000000e9004f00de000040780071
:101fb8000080fa00000006000000fa00f01180001e
:101fc800700060000000e00007003a00c1118000c6
:101fd80000022000008060000000e00002003200e3
:101fe80010002000010037000000eb0000407800de
:101ff8000080fa00000006000000fa00e0118000ee
:1020080077800a00000000000080fb0000f0a700b5
:102018000000ea000000ea004f00de0000407800ff
:102028000080fa00000006000400fa00f0118000a9
:102038008000eb00008fbe001e00be00c001dd0066
:1020480002002000e01180008000eb000000710019
:10205800818071000080fa00000006000000fa008c
:1020680039e2a80038a2a8003882a8000080fa0047
:10207800000006000000fa0039e2a90038a2a90011
:0c2088003882a9000080fa000000060069
:020000040000fa
:102094003600f800809fbe00829fbe00849fbe0071
:1020a400869fbe000000fa00c028a9000000eb00d3
:1020b4007b0307000080fa004f03be004f02be00fe
:1020c4004f01be004f00be003600f900004006007c
:1020d4003600f800809fbe00829fbe00849fbe0031
:1020e400869fbe000000fa0072030700c048a900e2
:1020f400100020006a0307000080fa004f03be00ae
:102104004f02be004f01be004f00be003600f90072
:10211400004006003600f800809fbe00829fbe008b
:10212400849fbe00869fbe000000fa00c068a9001c
:10213400200020005a0307000080fa004f03be006d
:102144004f02be004f01be004f00be003600f90032
:10215400004006003600f800809fbe00829fbe004b
:10216400849fbe00869fbe000000fa00c088a900bc
:10217400300020004a0307000080fa004f03be002d
:102184004f02be004f01be004f00be003600f900f2
:10219400004006003600f800809fbe00829fbe000b
:1021a400849fbe00869fbe000000fa00c608a900f6
:1021b400700020003a0307000080fa004f03be00bd
:1021c4004f02be004f01be004f00be003600f900b2
:1021d400004006003600f800809fbe00829fbe00cb
:1021e400849fbe00869fbe000000fa002146800046
:1021f40000102000008060000000e00003003200b6
:10220400c508a900c000200025030700204680005f
:10221400700060000000e00003003200c488a900e0
:10222400a00020001e03070020468000610060001b
:102234000000e00003003200c408a900b000200040
:0822440017030700ffff37003c
:020000040000fa
:10224c000200fa00000f7800508880009e0f5000aa
:10225c0002003e0020c4b30003003700a0002100a0
:10226c001e004000104078000080fa0000000600bc
:10227c000600fa000e81e8000009780064004700af
:10228c000108780036000700000f78006400470052
:10229c00100078009e0f50000200310064004700cf
:1022ac00100f78001e017800a10021000e80e800bc
:1022bc00100078000c030700001020009e00500056
:1022cc00a00021001e004000010178008000780071
:1022dc00a000210067010700508880001e005000fc
:1022ec00508888001e0078000080fa00000006006c
:1022fc000400fa00000f78000e80e8000108780056
:10230c000c0037002bff07000004e000090032002e
:10231c001e007800104078001e0fe80010ff070028
:10232c000e80e800100078008000e9000e80e800c4
:10233c00010878000e80e800100078000000e00032
:10234c00f0ff3a00000000002aff07000004a20082
:10235c000004e000fcff3a000080fa0000000600d8
:10236c000000fa00881f780000d0bf000004a20013
:10237c000004e0000f003200221020008000eb006f
:10238c00a00021007f00070010c0b30000f0b700d0
:10239c000900370058888000e2fe0700a1002100e8
:1023ac0081004400804878000800e80050888800cc
:1023bc000100370000000000f4fe07000004e000fc
:1023cc000400320051888000f00f2000808f5000f4
:1023dc00f0ff3600508880004f0478000080fa002f
:1023ec00000006000000fa000421ef0080d023005a
:1023fc004008880000032800000888004080800006
:10240c000000e00002003a00002521003000070027
:10241c000028a9002028a800002321008040eb0000
:10242c00014878000080fa00000006000200fa0063
:10243c00000f78009e0078004108880000232100de
:10244c008040eb00014878000080fa000000060094
:10245c000000fa00400880000080fa00000006002e
:10246c000200fa00000f78009e0078002108880016
:10247c00002321008040eb00014878000080fa0026
:10248c00000006000000fa00200880000080fa001e
:10249c00000006000000fa00b0738000dd800a0026
:1024ac00000000000004a200614060000080fb00fe
:1024bc00610060004d00dd00b173800001d0a1000f
:1024cc0001007000b07388000080fa000000060064
:1024dc000200fa00000f78002028a9009e00780066
:1024ec00418088002028a8000080fa000000060027
:1024fc000000fa00002321008040eb000148780026
:10250c002028a80001e1a8000080fa0000000600c5
:10251c000000fa0001e1a9002028a9000080fa00bf
:10252c00000006000200fa0000232100104f780082
:10253c001e4078000004e00003003200002321005c
:10254c008040eb00014878001e4078000080fa00c3
:10255c00000006000000fa00102321001040780053
:10256c000080fb000080fa00000006000000fa006a
:10257c00102321008040eb00014878000080fa0015
:04258c000000060045
:020000040000fa
:10259000889fbe008a9fbe00800478000200e00091
:1025a0005a00320001407800814c7800828144005a
:1025b000f1f99f00e20f5100540036009144980059
:1025c000a1449800e1f99f00d1f99f00e60f510066
:1025d0004e003600b1449800c1f99f00e80f510049
:1025e0004a0036000905ea00630565000a844400d4
:1025f0000a055100c1ff2f00010565000080fb00a6
:102600008000eb0012102000131020004002070091
:10261000008cbe000a01440060b99f0071b99f00a0
:10262000e80f550039003600200498003104980066
:10263000400498005104980020b99f0031b99f00d0
:1026400040b99f0051b99f00f80f55002f00360088
:102650006004980071049800000c9800110c980018
:10266000200c9800310c9800400c9800510c9800f8
:1026700020b19f0031b19f0040b19f0051b19f0038
:1026800060b19f0071b19f0000b99f0011b99f0018
:102690006401640078014100020444000205550011
:1026a0006011b8000203be000002be000403be00b9
:1026b0006022b80000007200818072000201730085
:1026c000838173000f00370008027800009abe0073
:1026d000029abe00009abe000292be00000c980052
:1026e000110c9800220c9800330c9800400c9800b4
:1026f000510c9800620c9800730c98000a02b1000b
:102700000802b000ff0f5500efff3e0009007800ff
:0c2710004f05be004f04be000000060094
:020000040000fa
:10271c00a1028800800478000000eb001f00370045
:10272c00e284440054a0b4009905ba00e284440049
:10273c0054a0b4009906ba00e284440054a0b4003a
:10274c000006eb00476fde00fd07b200ae0188000b
:10275c00636ce10003003a000ad801000000eb00b2
:10276c000e003700606ce10008003a00004deb00f1
:10277c000a05e800020039003420ec000af0a00041
:10278c008b05e900f9ff3e00040037006168e100a9
:10279c00010032000086eb000b00070019c7ba00dd
:1027ac001905ba000e04e00003003a000a00e0002c
:1027bc00dbff3a0000000600fe07b200ae02880004
:1027cc008a047800f5ff37000cd0a300e20f4d000f
:1027dc001c003b0089027800354dba000a05e80060
:1027ec00020039003420ec000af0a0008b05e9004f
:1027fc000f003200254dba000a05e800020039002e
:10280c003420ec000af0a0008b05e900080032002f
:10281c000c00e0000600320015cdba000a05e800f5
:10282c00020039003420ec000af0a0008b05e9000e
:10283c008984e80054a0b4000b00e000e2ff3a00e9
:10284c00000006009902ba00055d78008b05e900ce
:10285c00f7ff3200c82ade00055d78008b05e90021
:10286c00f3ff32000c00e000f1ff320019ddba007a
:04287c00eeff370034
:020000040000fa
:102880008001780081027800810f50004100320001
:1028900002824000840f5000030031000202400019
:1028a000848f5000010039009201370000826800d7
:1028b000810f50001b0031000408a3000500320006
:1028c000150037000200e000320032000201e9008a
:1028d000b15978000308a300faff3a000303780017
:1028e000820278000102780002003700b4197800f3
:1028f0000281e900e10f5100fcff3e0061816200ae
:102900000500a100850143008582400002003700d8
:10291000b55978000201e9000200e000fcff3a002e
:10292000000006000408a30018003a000600370063
:102930000200e000170032000201e90082014000bd
:102940000282400094497800820140000308a300fd
:10295000f7ff3a0082017800040037000281e900a5
:102960000202400082824000150a7800e10f510007
:10297000faff3e0061816100040037000201e900b6
:102980008201400002824000944978000200e00089
:08299000faff3a000000060006
:020000040000fa
:102998000000fa00062eef00222eef003e2eef0078
:1029a8005a2eef00762eef00f001200010708800fc
:1029b800d0ff2f00f07088000080eb00d0718800f5
:1029c800f0ff2b00b0728800f0ff210090738800a0
:1029d8000c2eef00282eef00442eef00602eef00a3
:1029e8007c2eef000a2eef00262eef00422eef007d
:1029f8005e2eef007a2eef00082eef00242eef0057
:102a0800402eef005c2eef00782eef00f001200042
:102a180000708800d0392000e0708800f00c200099
:102a2800c071880000c02200a0728800f000200059
:102a3800807388000000eb0051052000b146880033
:102a4800a10a2000b146880000688800716d8000e6
:102a580000fc2f00008060000000a000706d88005e
:102a6800f0c4b30028edb700008020005105200015
:102a7800b1468800a10a2000b14688000068880095
:102a88000080fa00000006000000fa001000230091
:102a9800307c880060092000407c88008c2fef0083
:102aa80010042000507c880010102000707c8800e2
:102ab80060092000807c880010042000907c880039
:102ac8009a2fef00b82fef00ba2fef00be2fef00bc
:102ad800002def00a02fef00a42fef00a62fef008e
:102ae800a82fef00aa2fef00ae2fef00b02fef00b6
:102af800b22fef007200200080072000a1092000fb
:102b080053f820008049780081497800824978008c
:102b18000001eb00600420007105200043f820004c
:102b28008049780081497800824978000080fa005d
:102b3800000006000000fa00707c8000ee800a00a9
:102b4800000000000080fb0000f0a7000000ea0081
:102b58000000ea004f00de00004078000080fa0024
:102b6800000006000000fa000080fa0000000600dd
:102b78000000fa0002d0bf000004a2000004e00038
:102b88001c0032001e0007000004e00003003200b1
:102b980010c0b30002f0b7001600370004d0bf0021
:102ba8000004e000030032000000eb0018000700fa
:102bb80003f0b70003d0bf000004a2000004e00047
:102bc8000200320010c0b30002f0b70002d0bf000c
:102bd8000004a2000004e0000600320077aea9005d
:102be800c3e8a900000000000000000069f6070023
:102bf800ffff370015f607000080fa000000060006
:102c08000000fa000040eb000080fa000000060017
:102c18000600fa00e40047008008780064004700d6
:102c2800100078000000e000020032000040eb00d5
:102c380016003700028022000300200064004700cd
:102c48001000780050fa07000e0378000002be005a
:102c580042002000030020000600780077f90700f2
:102c68001e01be00f0ff2f00f10f200000006900d8
:102c7800818069000080700000f0a7000000ea0071
:102c88000000ea004f00de00004078000080fa00f3
:102c9800000006000000fa000000eb00dcff07005f
:082ca8000080fa0000000600a4
:020000040000fa
:102cb0002f2321000eff26000e01880000000000d7
:102cc000000020000000e0000200320000012000af
:102cd00020028800140007009c0007000000e000ac
:102ce00003003a00006a21000100200002003700c2
:102cf0000000200001002000810f70000100320060
:102d000086fe0700000020000000e0000200320004
:102d10000000020000000000941702000000000004
:102d20000040da000000fe00400220000000e00049
:102d30000200320000202000900188000000060000
:020000040000fa
:102d40000c11000000010000800000000a100000cb
:102d500002010000800000000010000002000000de
:102d6000800000000210000002000000800000004f
:102d700004100000020000008200000001000000ba
:102d80002c1200000400000082000000ffffff0082
:102d9000ff0000000c120000200000008000000076
:102da000061000000200000082000000ffff00008b
:102db0003012000002000000800000000810000037
:0c2dc00002000000800000000000000085
:020000040000fa
:102dcc000200fa00000f780021028000200f200082
:102ddc00008060001e007000200288000080fa0055
:102dec00000006000000fa00c3e8a8000000000084
:102dfc00000000000080fa00000006000000fa004d
:102e0c008ef50700e1fe07002f0007001dff0700ed
:102e1c002cfc070073fd0700f2ff070000022000e6
:0c2e2c00e7ff07000080fa00000006002d
:020000040000fa
:102e38003600f800809fbe00829fbe00849fbe00bf
:102e4800869fbe000000fa00408080000000e0007d
:102e580002003200408080000000010010232100a1
:102e6800104078008040e8001023210001487800d5
:102e78000023210011c0b300014878000028a900f0
:102e88000080fa004f03be004f02be004f01be0093
:0c2e98004f00be003600f90000400600ac
:020000040000fa
:102ea4000200fa00000f78009e007800318088004c
:102eb400ffff37000000fa00c020210080077800df
:102ec40040222100000188000080fa000000060072
:102ed4000000fa0001428000f0f82f00008060003a
:102ee4000040a000004288000080fa0000000600b4
:020000040000fa
:102ef4008001780002003700b15978000201e9002e
:0c2f04000200e000fcff3a0000000600a4
:020000040000fa
:102f1000020ab900001bb9000200b800810042009b
:082f20008100430000000600df
:020000040000fa
:102f28000000fa00b6ff07000eff070010ff0700b9
:042f3800feff370061
:020000040000fa
:082f3c00501204000000000027
:020000040000fa
:082f44000040da000000fe006d
:020000040000fa
:042f4c00000005007c
:020000040000fa
:044008004a1000005a
:020000040000fa
:04400c008c10000014
:020000040000fa
:04401000cc100000d0
:020000040000fa
:044014006a1000002e
:020000040000fa
:04401800ac100000e8
:020000040000fa
:04401c00a2170000e7
:020000040000fa
:04402000ec100000a0
:020000040000fa
:04402400a2170000df
:020000040000fa
:04402800a2170000db
:020000040000fa
:04402c001c1700005d
:020000040000fa
:04403000a2170000d3
:020000040000fa
:04403400a2170000cf
:020000040000fa
:04403800a2170000cb
:020000040000fa
:04403c00a2170000c7
:020000040000fa
:04404000a2170000c3
:020000040000fa
:04404400a2170000bf
:020000040000fa
:04404800a2170000bb
:020000040000fa
:04404c00a2170000b7
:020000040000fa
:04405000a2170000b3
:020000040000fa
:04405400a2170000af
:020000040000fa
:04405800a2170000ab
:020000040000fa
:04405c00a2170000a7
:020000040000fa
:04406000a2170000a3
:020000040000fa
:04406400a21700009f
:020000040000fa
:04406800a21700009b
:020000040000fa
:04406c00a217000097
:020000040000fa
:04407000a217000093
:020000040000fa
:04407400a21700008f
:020000040000fa
:04407800a21700008b
:020000040000fa
:04407c00a217000087
:020000040000fa
:04408000a217000083
:020000040000fa
:04408400a21700007f
:020000040000fa
:04408800a21700007b
:020000040000fa
:04408c00a217000077
:020000040000fa
:04409000a217000073
:020000040000fa
:04409400a21700006f
:020000040000fa
:04409800a21700006b
:020000040000fa
:04409c00a217000067
:020000040000fa
:0440a000a217000063
:020000040000fa
:0440a400a21700005f
:020000040000fa
:0440a800a21700005b
:020000040000fa
:0440ac00a217000057
:020000040000fa
:0440b000a217000053
:020000040000fa
:0440b400a21700004f
:020000040000fa
:0440b800a21700004b
:020000040000fa
:0440bc00a217000047
:020000040000fa
:0440c000a217000043
:020000040000fa
:0440c400a21700003f
:020000040000fa
:0440c800a21700003b
:020000040000fa
:0440cc00a217000037
:020000040000fa
:0440d000a217000033
:020000040000fa
:0440d400a21700002f
:020000040000fa
:0440d800a21700002b
:020000040000fa
:0440dc00a217000027
:020000040000fa
:0440e000a217000023
:020000040000fa
:0440e400a21700001f
:020000040000fa
:0440e800a21700001b
:020000040000fa
:0440ec00a217000017
:020000040000fa
:0440f000a217000013
:020000040000fa
:0440f400a21700000f
:020000040000fa
:0440f800a21700000b
:020000040000fa
:0440fc00a217000007
:020000040000fa
:04410000a217000002
:020000040000fa
:04410400a2170000fe
:020000040000fa
:04410800a2170000fa
:020000040000fa
:04410c00a2170000f6
:020000040000fa
:04411000a2170000f2
:020000040000fa
:04411400a2170000ee
:020000040000fa
:04411800a2170000ea
:020000040000fa
:04411c00a2170000e6
:020000040000fa
:04412000a2170000e2
:020000040000fa
:04412400a2170000de
:020000040000fa
:04412800a2170000da
:020000040000fa
:04412c00a2170000d6
:020000040000fa
:04413000a2170000d2
:020000040000fa
:04413400a2170000ce
:020000040000fa
:04413800a2170000ca
:020000040000fa
:04413c00a2170000c6
:020000040000fa
:04414000a2170000c2
:020000040000fa
:04414400a2170000be
:020000040000fa
:04414800a2170000ba
:020000040000fa
:04414c00a2170000b6
:020000040000fa
:04415000a2170000b2
:020000040000fa
:04415400a2170000ae
:020000040000fa
:04415800a2170000aa
:020000040000fa
:04415c00a2170000a6
:020000040000fa
:04416000a2170000a2
:020000040000fa
:04416400a21700009e
:020000040000fa
:04416800a21700009a
:020000040000fa
:04416c00a217000096
:020000040000fa
:04417000a217000092
:020000040000fa
:04417400a21700008e
:020000040000fa
:04417800a21700008a
:020000040000fa
:04417c00a217000086
:020000040000fa
:04418000a217000082
:020000040000fa
:04418400a21700007e
:020000040000fa
:04418800a21700007a
:020000040000fa
:04418c00a217000076
:020000040000fa
:04419000a217000072
:020000040000fa
:04419400a21700006e
:020000040000fa
:04419800a21700006a
:020000040000fa
:04419c00a217000066
:020000040000fa
:0441a000a217000062
:020000040000fa
:0441a400a21700005e
:020000040000fa
:0441a800a21700005a
:020000040000fa
:0441ac00a217000056
:020000040000fa
:0441b000a217000052
:020000040000fa
:0441b400a21700004e
:020000040000fa
:0441b800a21700004a
:020000040000fa
:0441bc00a217000046
:020000040000fa
:0441c000a217000042
:020000040000fa
:0441c400a21700003e
:020000040000fa
:0441c800a21700003a
:020000040000fa
:0441cc00a217000036
:020000040000fa
:0441d000a217000032
:020000040000fa
:0441d400a21700002e
:020000040000fa
:0441d800a21700002a
:020000040000fa
:0441dc00a217000026
:020000040000fa
:0441e000a217000022
:020000040000fa
:0441e400a21700001e
:020000040000fa
:0441e800a21700001a
:020000040000fa
:0441ec00a217000016
:020000040000fa
:0441f000a217000012
:020000040000fa
:0441f400a21700000e
:020000040000fa
:0441f800a21700000a
:020000040000fa
:0441fc00a217000006
:020000040000fa
:04420000a217000001
:020000040000fa
:04420400a2170000fd
:020000040000fa
:04420800a2170000f9
:020000040000fa
:04420c00a2170000f5
:020000040000fa
:04421000a2170000f1
:020000040000fa
:04421400a2170000ed
:020000040000fa
:04421800a2170000e9
:020000040000fa
:04421c00a2170000e5
:020000040000fa
:04422000a2170000e1
:020000040000fa
:04422400a2170000dd
:020000040000fa
:04422800a2170000d9
:020000040000fa
:04422c00a2170000d5
:020000040000fa
:04423000a2170000d1
:020000040000fa
:04423400a2170000cd
:020000040000fa
:04423800a2170000c9
:020000040000fa
:04423c00a2170000c5
:020000040000fa
:04424000a2170000c1
:020000040000fa
:04424400a2170000bd
:020000040000fa
:04424800a2170000b9
:020000040000fa
:04424c00a2170000b5
:020000040000fa
:04425000a2170000b1
:020000040000fa
:04425400a2170000ad
:020000040000fa
:04425800a2170000a9
:020000040000fa
:04425c00a2170000a5
:020000040000fa
:04426000a2170000a1
:020000040000fa
:04426400a21700009d
:020000040000fa
:04426800a217000099
:020000040000fa
:04426c00a217000095
:020000040000fa
:04427000a217000091
:020000040000fa
:04427400a21700008d
:020000040000fa
:04427800a217000089
:020000040000fa
:04427c00a217000085
:020000040000fa
:04428000a217000081
:020000040000fa
:04428400a21700007d
:020000040000fa
:04428800a217000079
:020000040000fa
:04428c00a217000075
:020000040000fa
:04429000a217000071
:020000040000fa
:04429400a21700006d
:020000040000fa
:04429800a217000069
:020000040000fa
:04429c00a217000065
:020000040000fa
:0442a000a217000061
:020000040000fa
:0442a400a21700005d
:020000040000fa
:0442a800a217000059
:020000040000fa
:0442ac00a217000055
:020000040000fa
:0442b000a217000051
:020000040000fa
:0442b400a21700004d
:020000040000fa
:0442b800a217000049
:020000040000fa
:0442bc00a217000045
:020000040000fa
:0442c000a217000041
:020000040000fa
:0442c400a21700003d
:020000040000fa
:0442c800a217000039
:020000040000fa
:0442cc00a217000035
:020000040000fa
:0442d000a217000031
:020000040000fa
:0442d400a21700002d
:020000040000fa
:0442d800a217000029
:020000040000fa
:0442dc00a217000025
:020000040000fa
:0442e000a217000021
:020000040000fa
:0442e400a21700001d
:020000040000fa
:0442e800a217000019
:020000040000fa
:0442ec00a217000015
:020000040000fa
:0442f000a217000011
:020000040000fa
:0442f400a21700000d
:020000040000fa
:0442f800a217000009
:020000040000fa
:0442fc00a217000005
:020000040000fa
:04430000a217000000
:020000040000fa
:04430400a2170000fc
:020000040000fa
:04430800a2170000f8
:020000040000fa
:04430c00a2170000f4
:020000040000fa
:04431000a2170000f0
:020000040000fa
:04431400a2170000ec
:020000040000fa
:04431800a2170000e8
:020000040000fa
:04431c00a2170000e4
:020000040000fa
:04432000a2170000e0
:020000040000fa
:04432400a2170000dc
:020000040000fa
:04432800a2170000d8
:020000040000fa
:04432c00a2170000d4
:020000040000fa
:04433000a2170000d0
:020000040000fa
:04433400a2170000cc
:020000040000fa
:020000040005f5
:047e0000f77fff0009
:020000040000fa
:020000040005f5
:047e2000faffff0066
:020000040000fa
:020000040005f5
:047e30007fffff00d1
:020000040000fa
:020000040005f5
:047e3800bfffff0089
:020000040000fa
:020000040005f5
:047e40007f7fff0041
:020000040000fa
:020000040005f5
:047e4800ffffff0039
:020000040000fa
:020000040005f5
:047e5000ddffff0053
:020000040000fa
:020000040005f5
:047e58000000ff0027
:020000040000fa
:020000040005f5
:047e60000000ff001f
:020000040000fa
:020000040005f5
:047e68000000ff0017
:020000040000fa
:020000040005f5
:047e70000000ff000f
:020000040000fa
:020000040005f5
:047e7800ffffff0009
:020000040000fa
:020000040005f5
:047e8000fffcff0004
:020000040000fa
:020000040005f5
:047e8800ffffff00f9
:020000040000fa
:020000040005f5
:047ff800ffffff0088
:020000040000fa
:020000040100f9
:04300000ffffff00cf
:00000001FF
