:020000040000fa
:08000000502c04000000000078
:020000040000fa
:04000800302900009b
:020000040000fa
:04000c007229000055
:020000040000fa
:04001000b229000011
:020000040000fa
:04001400502900006f
:020000040000fa
:040018009229000029
:020000040000fa
:04001c00502d000063
:020000040000fa
:04002000d2290000e1
:020000040000fa
:04002400502d00005b
:020000040000fa
:04002800502d000057
:020000040000fa
:04002c00982c00000c
:020000040000fa
:04003000502d00004f
:020000040000fa
:04003400502d00004b
:020000040000fa
:04003800502d000047
:020000040000fa
:04003c00502d000043
:020000040000fa
:04004000502d00003f
:020000040000fa
:04004400502d00003b
:020000040000fa
:04004800502d000037
:020000040000fa
:04004c00502d000033
:020000040000fa
:04005000502d00002f
:020000040000fa
:04005400502d00002b
:020000040000fa
:04005800502d000027
:020000040000fa
:04005c00502d000023
:020000040000fa
:04006000502d00001f
:020000040000fa
:04006400502d00001b
:020000040000fa
:04006800502d000017
:020000040000fa
:04006c00502d000013
:020000040000fa
:04007000502d00000f
:020000040000fa
:04007400502d00000b
:020000040000fa
:04007800502d000007
:020000040000fa
:04007c00502d000003
:020000040000fa
:04008000502d0000ff
:020000040000fa
:04008400502d0000fb
:020000040000fa
:04008800502d0000f7
:020000040000fa
:04008c00502d0000f3
:020000040000fa
:04009000502d0000ef
:020000040000fa
:04009400502d0000eb
:020000040000fa
:04009800502d0000e7
:020000040000fa
:04009c00502d0000e3
:020000040000fa
:0400a000502d0000df
:020000040000fa
:0400a400502d0000db
:020000040000fa
:0400a800502d0000d7
:020000040000fa
:0400ac00502d0000d3
:020000040000fa
:0400b000502d0000cf
:020000040000fa
:0400b400502d0000cb
:020000040000fa
:0400b800502d0000c7
:020000040000fa
:0400bc00502d0000c3
:020000040000fa
:0400c000502d0000bf
:020000040000fa
:0400c400502d0000bb
:020000040000fa
:0400c800502d0000b7
:020000040000fa
:0400cc00502d0000b3
:020000040000fa
:0400d000502d0000af
:020000040000fa
:0400d400502d0000ab
:020000040000fa
:0400d800502d0000a7
:020000040000fa
:0400dc00502d0000a3
:020000040000fa
:0400e000502d00009f
:020000040000fa
:0400e400502d00009b
:020000040000fa
:0400e800502d000097
:020000040000fa
:0400ec00502d000093
:020000040000fa
:0400f000502d00008f
:020000040000fa
:0400f400502d00008b
:020000040000fa
:0400f800502d000087
:020000040000fa
:0400fc00502d000083
:020000040000fa
:04010000502d00007e
:020000040000fa
:04010400502d00007a
:020000040000fa
:04010800502d000076
:020000040000fa
:04010c00502d000072
:020000040000fa
:04011000502d00006e
:020000040000fa
:04011400502d00006a
:020000040000fa
:04011800502d000066
:020000040000fa
:04011c00502d000062
:020000040000fa
:04012000502d00005e
:020000040000fa
:04012400502d00005a
:020000040000fa
:04012800502d000056
:020000040000fa
:04012c00502d000052
:020000040000fa
:04013000502d00004e
:020000040000fa
:04013400502d00004a
:020000040000fa
:04013800502d000046
:020000040000fa
:04013c00502d000042
:020000040000fa
:04014000502d00003e
:020000040000fa
:04014400502d00003a
:020000040000fa
:04014800502d000036
:020000040000fa
:04014c00502d000032
:020000040000fa
:04015000502d00002e
:020000040000fa
:04015400502d00002a
:020000040000fa
:04015800502d000026
:020000040000fa
:04015c00502d000022
:020000040000fa
:04016000502d00001e
:020000040000fa
:04016400502d00001a
:020000040000fa
:04016800502d000016
:020000040000fa
:04016c00502d000012
:020000040000fa
:04017000502d00000e
:020000040000fa
:04017400502d00000a
:020000040000fa
:04017800502d000006
:020000040000fa
:04017c00502d000002
:020000040000fa
:04018000502d0000fe
:020000040000fa
:04018400502d0000fa
:020000040000fa
:04018800502d0000f6
:020000040000fa
:04018c00502d0000f2
:020000040000fa
:04019000502d0000ee
:020000040000fa
:04019400502d0000ea
:020000040000fa
:04019800502d0000e6
:020000040000fa
:04019c00502d0000e2
:020000040000fa
:0401a000502d0000de
:020000040000fa
:0401a400502d0000da
:020000040000fa
:0401a800502d0000d6
:020000040000fa
:0401ac00502d0000d2
:020000040000fa
:0401b000502d0000ce
:020000040000fa
:0401b400502d0000ca
:020000040000fa
:0401b800502d0000c6
:020000040000fa
:0401bc00502d0000c2
:020000040000fa
:0401c000502d0000be
:020000040000fa
:0401c400502d0000ba
:020000040000fa
:0401c800502d0000b6
:020000040000fa
:0401cc00502d0000b2
:020000040000fa
:0401d000502d0000ae
:020000040000fa
:0401d400502d0000aa
:020000040000fa
:0401d800502d0000a6
:020000040000fa
:0401dc00502d0000a2
:020000040000fa
:0401e000502d00009e
:020000040000fa
:0401e400502d00009a
:020000040000fa
:0401e800502d000096
:020000040000fa
:0401ec00502d000092
:020000040000fa
:0401f000502d00008e
:020000040000fa
:0401f400502d00008a
:020000040000fa
:0401f800502d000086
:020000040000fa
:0401fc00502d000082
:020000040000fa
:04020000502d00007d
:020000040000fa
:04020400502d000079
:020000040000fa
:04020800502d000075
:020000040000fa
:04020c00502d000071
:020000040000fa
:04021000502d00006d
:020000040000fa
:04021400502d000069
:020000040000fa
:04021800502d000065
:020000040000fa
:04021c00502d000061
:020000040000fa
:04022000502d00005d
:020000040000fa
:04022400502d000059
:020000040000fa
:04022800502d000055
:020000040000fa
:04022c00502d000051
:020000040000fa
:04023000502d00004d
:020000040000fa
:04023400502d000049
:020000040000fa
:04023800502d000045
:020000040000fa
:04023c00502d000041
:020000040000fa
:04024000502d00003d
:020000040000fa
:04024400502d000039
:020000040000fa
:04024800502d000035
:020000040000fa
:04024c00502d000031
:020000040000fa
:04025000502d00002d
:020000040000fa
:04025400502d000029
:020000040000fa
:04025800502d000025
:020000040000fa
:04025c00502d000021
:020000040000fa
:04026000502d00001d
:020000040000fa
:04026400502d000019
:020000040000fa
:04026800502d000015
:020000040000fa
:04026c00502d000011
:020000040000fa
:04027000502d00000d
:020000040000fa
:04027400502d000009
:020000040000fa
:04027800502d000005
:020000040000fa
:04027c00502d000001
:020000040000fa
:04028000502d0000fd
:020000040000fa
:04028400502d0000f9
:020000040000fa
:04028800502d0000f5
:020000040000fa
:04028c00502d0000f1
:020000040000fa
:04029000502d0000ed
:020000040000fa
:04029400502d0000e9
:020000040000fa
:04029800502d0000e5
:020000040000fa
:04029c00502d0000e1
:020000040000fa
:0402a000502d0000dd
:020000040000fa
:0402a400502d0000d9
:020000040000fa
:0402a800502d0000d5
:020000040000fa
:0402ac00502d0000d1
:020000040000fa
:0402b000502d0000cd
:020000040000fa
:0402b400502d0000c9
:020000040000fa
:0402b800502d0000c5
:020000040000fa
:0402bc00502d0000c1
:020000040000fa
:0402c000502d0000bd
:020000040000fa
:0402c400502d0000b9
:020000040000fa
:0402c800502d0000b5
:020000040000fa
:0402cc00502d0000b1
:020000040000fa
:0402d000502d0000ad
:020000040000fa
:0402d400502d0000a9
:020000040000fa
:0402d800502d0000a5
:020000040000fa
:0402dc00502d0000a1
:020000040000fa
:0402e000502d00009d
:020000040000fa
:0402e400502d000099
:020000040000fa
:0402e800502d000095
:020000040000fa
:0402ec00502d000091
:020000040000fa
:0402f000502d00008d
:020000040000fa
:0402f400502d000089
:020000040000fa
:0402f800502d000085
:020000040000fa
:0402fc00502d000081
:020000040000fa
:04030000502d00007c
:020000040000fa
:04030400502d000078
:020000040000fa
:04030800502d000074
:020000040000fa
:04030c00502d000070
:020000040000fa
:04031000502d00006c
:020000040000fa
:04031400502d000068
:020000040000fa
:04031800502d000064
:020000040000fa
:04031c00502d000060
:020000040000fa
:04032000502d00005c
:020000040000fa
:04032400502d000058
:020000040000fa
:04032800502d000054
:020000040000fa
:04032c00502d000050
:020000040000fa
:04033000502d00004c
:020000040000fa
:04033400502d000048
:020000040000fa
:04400800302900005b
:020000040000fa
:04400c007229000015
:020000040000fa
:04401000b2290000d1
:020000040000fa
:04401400502900002f
:020000040000fa
:0440180092290000e9
:020000040000fa
:04401c00502d000023
:020000040000fa
:04402000d2290000a1
:020000040000fa
:04402400502d00001b
:020000040000fa
:04402800502d000017
:020000040000fa
:04402c00982c0000cc
:020000040000fa
:04403000502d00000f
:020000040000fa
:04403400502d00000b
:020000040000fa
:04403800502d000007
:020000040000fa
:04403c00502d000003
:020000040000fa
:04404000502d0000ff
:020000040000fa
:04404400502d0000fb
:020000040000fa
:04404800502d0000f7
:020000040000fa
:04404c00502d0000f3
:020000040000fa
:04405000502d0000ef
:020000040000fa
:04405400502d0000eb
:020000040000fa
:04405800502d0000e7
:020000040000fa
:04405c00502d0000e3
:020000040000fa
:04406000502d0000df
:020000040000fa
:04406400502d0000db
:020000040000fa
:04406800502d0000d7
:020000040000fa
:04406c00502d0000d3
:020000040000fa
:04407000502d0000cf
:020000040000fa
:04407400502d0000cb
:020000040000fa
:04407800502d0000c7
:020000040000fa
:04407c00502d0000c3
:020000040000fa
:04408000502d0000bf
:020000040000fa
:04408400502d0000bb
:020000040000fa
:04408800502d0000b7
:020000040000fa
:04408c00502d0000b3
:020000040000fa
:04409000502d0000af
:020000040000fa
:04409400502d0000ab
:020000040000fa
:04409800502d0000a7
:020000040000fa
:04409c00502d0000a3
:020000040000fa
:0440a000502d00009f
:020000040000fa
:0440a400502d00009b
:020000040000fa
:0440a800502d000097
:020000040000fa
:0440ac00502d000093
:020000040000fa
:0440b000502d00008f
:020000040000fa
:0440b400502d00008b
:020000040000fa
:0440b800502d000087
:020000040000fa
:0440bc00502d000083
:020000040000fa
:0440c000502d00007f
:020000040000fa
:0440c400502d00007b
:020000040000fa
:0440c800502d000077
:020000040000fa
:0440cc00502d000073
:020000040000fa
:0440d000502d00006f
:020000040000fa
:0440d400502d00006b
:020000040000fa
:0440d800502d000067
:020000040000fa
:0440dc00502d000063
:020000040000fa
:0440e000502d00005f
:020000040000fa
:0440e400502d00005b
:020000040000fa
:0440e800502d000057
:020000040000fa
:0440ec00502d000053
:020000040000fa
:0440f000502d00004f
:020000040000fa
:0440f400502d00004b
:020000040000fa
:0440f800502d000047
:020000040000fa
:0440fc00502d000043
:020000040000fa
:04410000502d00003e
:020000040000fa
:04410400502d00003a
:020000040000fa
:04410800502d000036
:020000040000fa
:04410c00502d000032
:020000040000fa
:04411000502d00002e
:020000040000fa
:04411400502d00002a
:020000040000fa
:04411800502d000026
:020000040000fa
:04411c00502d000022
:020000040000fa
:04412000502d00001e
:020000040000fa
:04412400502d00001a
:020000040000fa
:04412800502d000016
:020000040000fa
:04412c00502d000012
:020000040000fa
:04413000502d00000e
:020000040000fa
:04413400502d00000a
:020000040000fa
:04413800502d000006
:020000040000fa
:04413c00502d000002
:020000040000fa
:04414000502d0000fe
:020000040000fa
:04414400502d0000fa
:020000040000fa
:04414800502d0000f6
:020000040000fa
:04414c00502d0000f2
:020000040000fa
:04415000502d0000ee
:020000040000fa
:04415400502d0000ea
:020000040000fa
:04415800502d0000e6
:020000040000fa
:04415c00502d0000e2
:020000040000fa
:04416000502d0000de
:020000040000fa
:04416400502d0000da
:020000040000fa
:04416800502d0000d6
:020000040000fa
:04416c00502d0000d2
:020000040000fa
:04417000502d0000ce
:020000040000fa
:04417400502d0000ca
:020000040000fa
:04417800502d0000c6
:020000040000fa
:04417c00502d0000c2
:020000040000fa
:04418000502d0000be
:020000040000fa
:04418400502d0000ba
:020000040000fa
:04418800502d0000b6
:020000040000fa
:04418c00502d0000b2
:020000040000fa
:04419000502d0000ae
:020000040000fa
:04419400502d0000aa
:020000040000fa
:04419800502d0000a6
:020000040000fa
:04419c00502d0000a2
:020000040000fa
:0441a000502d00009e
:020000040000fa
:0441a400502d00009a
:020000040000fa
:0441a800502d000096
:020000040000fa
:0441ac00502d000092
:020000040000fa
:0441b000502d00008e
:020000040000fa
:0441b400502d00008a
:020000040000fa
:0441b800502d000086
:020000040000fa
:0441bc00502d000082
:020000040000fa
:0441c000502d00007e
:020000040000fa
:0441c400502d00007a
:020000040000fa
:0441c800502d000076
:020000040000fa
:0441cc00502d000072
:020000040000fa
:0441d000502d00006e
:020000040000fa
:0441d400502d00006a
:020000040000fa
:0441d800502d000066
:020000040000fa
:0441dc00502d000062
:020000040000fa
:0441e000502d00005e
:020000040000fa
:0441e400502d00005a
:020000040000fa
:0441e800502d000056
:020000040000fa
:0441ec00502d000052
:020000040000fa
:0441f000502d00004e
:020000040000fa
:0441f400502d00004a
:020000040000fa
:0441f800502d000046
:020000040000fa
:0441fc00502d000042
:020000040000fa
:04420000502d00003d
:020000040000fa
:04420400502d000039
:020000040000fa
:04420800502d000035
:020000040000fa
:04420c00502d000031
:020000040000fa
:04421000502d00002d
:020000040000fa
:04421400502d000029
:020000040000fa
:04421800502d000025
:020000040000fa
:04421c00502d000021
:020000040000fa
:04422000502d00001d
:020000040000fa
:04422400502d000019
:020000040000fa
:04422800502d000015
:020000040000fa
:04422c00502d000011
:020000040000fa
:04423000502d00000d
:020000040000fa
:04423400502d000009
:020000040000fa
:04423800502d000005
:020000040000fa
:04423c00502d000001
:020000040000fa
:04424000502d0000fd
:020000040000fa
:04424400502d0000f9
:020000040000fa
:04424800502d0000f5
:020000040000fa
:04424c00502d0000f1
:020000040000fa
:04425000502d0000ed
:020000040000fa
:04425400502d0000e9
:020000040000fa
:04425800502d0000e5
:020000040000fa
:04425c00502d0000e1
:020000040000fa
:04426000502d0000dd
:020000040000fa
:04426400502d0000d9
:020000040000fa
:04426800502d0000d5
:020000040000fa
:04426c00502d0000d1
:020000040000fa
:04427000502d0000cd
:020000040000fa
:04427400502d0000c9
:020000040000fa
:04427800502d0000c5
:020000040000fa
:04427c00502d0000c1
:020000040000fa
:04428000502d0000bd
:020000040000fa
:04428400502d0000b9
:020000040000fa
:04428800502d0000b5
:020000040000fa
:04428c00502d0000b1
:020000040000fa
:04429000502d0000ad
:020000040000fa
:04429400502d0000a9
:020000040000fa
:04429800502d0000a5
:020000040000fa
:04429c00502d0000a1
:020000040000fa
:0442a000502d00009d
:020000040000fa
:0442a400502d000099
:020000040000fa
:0442a800502d000095
:020000040000fa
:0442ac00502d000091
:020000040000fa
:0442b000502d00008d
:020000040000fa
:0442b400502d000089
:020000040000fa
:0442b800502d000085
:020000040000fa
:0442bc00502d000081
:020000040000fa
:0442c000502d00007d
:020000040000fa
:0442c400502d000079
:020000040000fa
:0442c800502d000075
:020000040000fa
:0442cc00502d000071
:020000040000fa
:0442d000502d00006d
:020000040000fa
:0442d400502d000069
:020000040000fa
:0442d800502d000065
:020000040000fa
:0442dc00502d000061
:020000040000fa
:0442e000502d00005d
:020000040000fa
:0442e400502d000059
:020000040000fa
:0442e800502d000055
:020000040000fa
:0442ec00502d000051
:020000040000fa
:0442f000502d00004d
:020000040000fa
:0442f400502d000049
:020000040000fa
:0442f800502d000045
:020000040000fa
:0442fc00502d000041
:020000040000fa
:04430000502d00003c
:020000040000fa
:04430400502d000038
:020000040000fa
:04430800502d000034
:020000040000fa
:04430c00502d000030
:020000040000fa
:04431000502d00002c
:020000040000fa
:04431400502d000028
:020000040000fa
:04431800502d000024
:020000040000fa
:04431c00502d000020
:020000040000fa
:04432000502d00001c
:020000040000fa
:04432400502d000018
:020000040000fa
:04432800502d000014
:020000040000fa
:04432c00502d000010
:020000040000fa
:04433000502d00000c
:020000040000fa
:04433400502d000008
:020000040000fa
:08500000502c04000000000028
:020000040000fa
:105008000000fa00007c80000080fa000000060022
:105018000200fa00faff0700000f78001e0078006f
:10502800240007000004e00002003200000028000d
:105038007d0007001e0078002c0007000004e00037
:105048000200320000002400770007001e007800ec
:10505800360007000004e0000200320000202000b3
:10506800710007001e007800400007000004e000ff
:1050780002003200000820006b0007001e007800c4
:105088004a0007000004e00002003200000420008b
:10509800650007001e007800540007000004e000c7
:1050a80002003200000120005f0007000080fa00c3
:1050b800000006000400fa008e80e80080087800ee
:1050c8000040eb00004f78000e80e80010007800e8
:1050d8000000e00002003d0010c0b300004f78005f
:1050e8001e4078000080fa00000006000400fa0064
:1050f8008e80e800800878000040eb00004f7800c0
:105108000e80e80090007800000024000080600015
:105118000000e0000200320010c0b300004f780029
:105128001e4078000080fa00000006000400fa0023
:105138008e80e800800878000040eb00004f78007f
:105148000e80e800900078000020200000806000b9
:105158000000e0000200320010c0b300004f7800e9
:105168001e4078000080fa00000006000400fa00e3
:105178008e80e800800878000040eb00004f78003f
:105188000e80e80090007800000820000080600091
:105198000000e0000200320010c0b300004f7800a9
:1051a8001e4078000080fa00000006000400fa00a3
:1051b8008e80e800800878000040eb00004f7800ff
:1051c8000e80e80090007800000420000080600055
:1051d8000000e0000200320010c0b300004f780069
:1051e8001e4078000080fa00000006000400fa0063
:1051f8008e80e800800878000040eb00004f7800bf
:105208000e80e80010007800700060000000e000e8
:105218000200320010c0b300004f78001e40780032
:105228000080fa00000006000200fa00000f780073
:105238001e80ea00017c800001006000007c88007c
:105248000080fa00000006000000fa00802fef003e
:085258000080fa0000000600ce
:020000040000fa
:105260003600f800809fbe00829fbe00849fbe0073
:10527000869fbe000000fa00c028a9000000eb00d5
:10528000ee0107000080fa004f03be004f02be008f
:105290004f01be004f00be003600f900004006007e
:1052a0003600f800809fbe00829fbe00849fbe0033
:1052b000869fbe000000fa00e5010700c048a90073
:1052c00010002000dd0107000080fa004f03be003f
:1052d0004f02be004f01be004f00be003600f90075
:1052e000004006003600f800809fbe00829fbe008e
:1052f000849fbe00869fbe000000fa00c068a9001f
:1053000020002000cd0107000080fa004f03be00fe
:105310004f02be004f01be004f00be003600f90034
:10532000004006003600f800809fbe00829fbe004d
:10533000849fbe00869fbe000000fa00c088a900be
:1053400030002000bd0107000080fa004f03be00be
:105350004f02be004f01be004f00be003600f900f4
:10536000004006003600f800809fbe00829fbe000d
:10537000849fbe00869fbe000000fa00c608a900f8
:1053800070002000ad0107000080fa004f03be004e
:105390004f02be004f01be004f00be003600f900b4
:1053a000004006003600f800809fbe00829fbe00cd
:1053b000849fbe00869fbe000000fa002146800048
:1053c00000102000008060000000e00003003200b8
:1053d000c508a900c00020009801070020468000f1
:1053e000700060000000e00003003200c488a900e3
:1053f000a0002000910107002046800061006000ad
:105400000000e00003003200c408a900b000200042
:085410008a010700ffff3700cd
:020000040000fa
:105418000000fa000421ef0080d023004008880033
:105428000003280000088800008080000000e000d9
:1054380002003a0040a622002f0007000028a90019
:105448002028a800400221008040eb000148780095
:105458000080fa00000006000200fa00000f780041
:105468009e00780041088800400221008040eb003f
:10547800014878000080fa00000006000000fa00e9
:10548800400880000080fa00000006000200fa00d0
:10549800000f78009e007800210888004002210053
:1054a8008040eb00014878000080fa000000060008
:1054b8000000fa00200880000080fa0000000600c2
:1054c8000000fa00b0738000ff800a0000000000ae
:1054d8000004a200614060000080fb004f00dd0076
:1054e800b173800001f0a10001007000b073880062
:1054f8000080fa00000006000200fa00000f7800a1
:105508002028a9009e007800018088002028a80093
:105518000080fa00000006000000fa0040022100a6
:105528008040eb00014878002028a80001e1a8008d
:105538000080fa00000006000000fa0001e1a9005e
:105548002028a9000080fa00000006000200fa00e6
:1055580040022100104f78001e4078000004e0004f
:1055680003003200400221008040eb00014878002f
:105578001e4078000080fa00000006000000fa00d3
:1055880050022100104078000080fb000080fa00e3
:10559800000006000000fa00500221008040eb00e5
:0c55a800014878000080fa0000000600b6
:020000040000fa
:1055b400a1028800800478000000eb001f0037007f
:1055c400e284440054a0b4009905ba00e284440083
:1055d40054a0b4009906ba00e284440054a0b40074
:1055e4000006eb00476fde00fd07b200ae01880045
:1055f400636ce10003003a000ad801000000eb00ec
:105604000e003700606ce10008003a00004deb002a
:105614000a05e800020039003420ec000af0a0007a
:105624008b05e900f9ff3e00040037006168e100e2
:10563400010032000086eb000b00070019c7ba0016
:105644001905ba000e04e00003003a000a00e00065
:10565400dbff3a0000000600fe07b200ae0288003d
:105664008a047800f5ff37000cd0a300e20f4d0048
:105674001c003b0089027800354dba000a05e80099
:10568400020039003420ec000af0a0008b05e90088
:105694000f003200254dba000a05e8000200390067
:1056a4003420ec000af0a0008b05e9000800320069
:1056b4000c00e0000600320015cdba000a05e8002f
:1056c400020039003420ec000af0a0008b05e90048
:1056d4008984e80054a0b4000b00e000e2ff3a0023
:1056e400000006009902ba00055d78008b05e90008
:1056f400f7ff3200c82ade00055d78008b05e9005b
:10570400f3ff32000c00e000f1ff320019ddba00b3
:04571400eeff37006d
:020000040000fa
:105718000000fa0010002300307c88006009200097
:10572800407c88008c2fef0010042000507c8800fb
:1057380010102000707c880060092000807c8800a0
:1057480010042000907c88009a2fef00b82fef00fb
:10575800ba2fef00be2fef00002def00a02fef00b3
:10576800a42fef00a62fef00a82fef00aa2fef001d
:10577800ae2fef00b02fef00b22fef007200200025
:1057880080072000a109200053f8200080497800f4
:1057980081497800824978000001eb00600420000c
:1057a8007105200043f8200080497800814978007d
:1057b800824978000080fa00000006000000fa0024
:1057c800707c8000ee800a00000000000080fb0072
:1057d80000f0a7000000ea000000ea004f00de0029
:1057e800004078000080fa00000006000000fa007f
:1057f800062eef00222eef003e2eef005a2eef006d
:10580800762eef00f001200010708800d0ff2f00e6
:10581800f07088000080eb00d07188000080eb00f9
:10582800b0728800f0ff2100907388000c2eef0002
:10583800282eef00442eef00602eef007c2eef00a4
:105848000a2eef00262eef00422eef005e2eef000c
:105858007a2eef00082eef00242eef00402eef00e6
:105868005c2eef00782eef00f00120000070880019
:10587800d0392000e0708800f00c2000c07188004a
:1058880000c02200a0728800f00020008073880009
:085898000080fa000000060088
:020000040000fa
:1058a0006f0221000eff26000e018800000000009c
:1058b000000020000000e000020032000001200093
:1058c0002002880014000700770007000000e000b5
:1058d00003003a0020d0220001002000020037001f
:1058e0000000200001002000810f70000100320044
:1058f00030ff0700000020000000e000020032003e
:105900000000020000000000462d02000000000020
:105910000040da000000fe00200020000000e0004f
:1059200002003200100020009001880000000600f4
:020000040000fa
:105930003600f800809fbe00829fbe00849fbe009c
:10594000869fbe000000fa00008080000000e0009a
:10595000020032000080800000000100500221009f
:10596000104078008040e800500221000148780093
:105970004002210011c0b300014878000028a900ae
:105980000080fa004f03be004f02be004f01be0070
:0c5990004f00be003600f9000040060089
:020000040000fa
:10599c000200fa00000f780021028000200f200086
:1059ac00008060001e007000200288000080fa0059
:1059bc00000006000000fa00c3e8a8000000000088
:1059cc00000000000080fa00000006000000fa0051
:1059dc0085ff07004dff0700210007008bfe070025
:1059ec00c308a800f3ff070000022000e8ff07002f
:0859fc000080fa000000060023
:020000040000fa
:105a040024100000020000008000000000100000cc
:105a140002000000800000000410000020000000cc
:105a2400800000000210000002000000820000005c
:085a3400ffff0000000000006c
:020000040000fa
:105a3c000200fa00000f78009e00780011808800a8
:105a4c00ffff37000000fa004000210080077800bb
:105a5c00c0012100000188000080fa00000006004f
:105a6c000000fa0001428000f0f82f000080600076
:105a7c000040a000004288000080fa0000000600f0
:0c5a8c000000fa00d1ff0700ffff370008
:020000040000fa
:085a9800642a04000000000074
:020000040000fa
:085aa0000040da000000fe00e6
:020000040000fa
:045aa80000000500f5
:020000040000fa
:020000040005f5
:047e0000f77fff0009
:020000040000fa
:020000040005f5
:047e2000faffff0066
:020000040000fa
:020000040005f5
:047e30007fffff00d1
:020000040000fa
:020000040005f5
:047e3800bfffff0089
:020000040000fa
:020000040005f5
:047e40007f7fff0041
:020000040000fa
:020000040005f5
:047e4800ffffff0039
:020000040000fa
:020000040005f5
:047e5000ddffff0053
:020000040000fa
:020000040005f5
:047e58000000ff0027
:020000040000fa
:020000040005f5
:047e60000000ff001f
:020000040000fa
:020000040005f5
:047e68000000ff0017
:020000040000fa
:020000040005f5
:047e70000000ff000f
:020000040000fa
:020000040005f5
:047e7800ffffff0009
:020000040000fa
:020000040005f5
:047e8000fffcff0004
:020000040000fa
:020000040005f5
:047e8800ffffff00f9
:020000040000fa
:020000040005f5
:047ff800ffffff0088
:020000040000fa
:020000040100f9
:04300000ffffff00cf
:00000001FF
